:020000040000FA
:106000009026002009770000117700001377000028
:106010000000000000000000000000000000000080
:1060200000000000000000000000000015770000E4
:106030000000000000000000177700001977000042
:10604000000000001B7700000000000000000000BE
:106050001B7700001B77000061760000A37600002C
:10606000FF74000031750000637500001B770000AD
:10607000DB730000000000000000000000000000D2
:106080000000000000000000000000000000000010
:106090000000000000000000000000000000000000
:1060A00000000000000000000000000000000000F0
:1060B00000000000000000000000000000000000E0
:1060C0000348854604F0B4F800480047076C000018
:1060D00090260020F8B504460D4616461F46FE4899
:1060E00000682030082141180A7810464A781202C8
:1060F00010438A7812041043C978090608433843CC
:10610000F549096820310872020A4A72020C8A7243
:10611000000EC872F0480068C07B10218843290136
:10612000102211400843EC490968C873EA48006826
:10613000C07B202188437101202211400843E64999
:106140000968C873E4480068C07B40084000E10764
:10615000C90F0843E0490968C873002C09D1DE481B
:106160000068007B40084000401CDB490968087358
:1061700010E00320000200F0D6FED748006820306F
:10618000407940084000401CD349096820314871DB
:1061900000BFFEE7F8BD1FB500216846017007216A
:1061A00041726B2141811E21818102F003FD052096
:1061B000CA498870CA480378CA480178CA4AC74899
:1061C00002F0F2FC1FBD13B582B06846408915216C
:1061D0004902884209D1C5A103C901910090072451
:1061E0006946204602F00DFD8EE068464089C149AF
:1061F000884208D1C0A000680190022401A920466D
:1062000002F0FFFC80E068464089BA4928318842A4
:1062100009D1BAA003C8019100900824694620461C
:1062200002F0EFFC70E068464089B24923318842B1
:1062300009D1B4A103C90191009007246946204601
:1062400002F0DFFC60E068464089AA4924318842B8
:1062500009D1AEA103C901910090052469462046E9
:1062600002F0CFFC50E068464089A24926318842BE
:1062700008D1A8A000680190042401A9204602F0DA
:10628000C0FC41E0684640899A492531884208D1DE
:10629000A1A000680190042401A9204602F0B1FCED
:1062A00032E06846408993492731884208D19BA053
:1062B00000680190042401A9204602F0A2FC23E01A
:1062C000684640898B494F31884209D194A103C95E
:1062D0000191009007246946204602F092FC13E0E9
:1062E000684640898349183188420DD101248E487F
:1062F0000078019001A9204602F083FC8A480078CA
:10630000401E8949087000BF1FBD0FB410B58E2014
:10631000864908706846807B88706846827B03A93E
:1063200003318248C01C03F03FFD10BC08BC04B020
:10633000184710B57E4800680078000900017C49C4
:10634000096808707A4800680078F0218843784925
:1063500009680870764800684078000900017449AF
:1063600009684870724800684078F0218843704995
:10637000096848706E4800688078000900016C491F
:10638000096888706A4800688078F0218843684905
:106390000968887066480068C0780009000164498F
:1063A0000968C87062480068C078F0218843604975
:1063B0000968C8705E4800680079000900015C49FE
:1063C000096808715A4800680079F02188435849E3
:1063D000096808715648006840790009000154496D
:1063E00009684871524800684079F0218843504953
:1063F000096848714E4800688079000900014C49DD
:10640000096888714A4800688079F02188434849C2
:106410000968887146480068C0790009000144494C
:106420000968C87142480068C079F0218843404932
:106430000968C8713E480068007A000900013C49BB
:10644000096808723A480068007AF02188433849A0
:106450000968087236480068407A0009000134492A
:106460000968487232480068407AF0218843304910
:10647000096848722E480068807A000900012C499A
:10648000096888722A480068807AF0218843284980
:106490000968887226480068C07A0009000124490A
:1064A0000968C87222480068C07AF02188432049F0
:1064B0000968C8721E480068007B000900011C4979
:1064C000096808731A480068007BF021884318495E
:1064D0000968087316482DE03410002012100020BF
:1064E0002A1000202610002028100020535944387C
:1064F00038303100012A0000FFFF000053594420CA
:10650000496E632E424C4520312E3000312E302E04
:1065100030000000322E3030332E3030342E303008
:10652000023A09050A0200005C100020F010002069
:10653000681000200068407B00090001FA490968E2
:106540004873F9480068407BF0218843F6490968A0
:106550004873F54800682030007D40084000401C2A
:10656000F149096820310875EF4800682030007D46
:1065700002218843801CEC49096820310875EA48EB
:1065800000682030007D04218843001DE649096829
:1065900020310875E44800682030007D08218843D8
:1065A0000830E149096820310875DF48006820306B
:1065B000007D102188431030DB49096820310875BF
:1065C000D94800682030007D202188432030D649FA
:1065D000096820310875D44800682030007D4021CA
:1065E00088434030D049096820310875CE4800689A
:1065F0002030007D802188438030CB4909682031DC
:106600000875C94800682030407D40084000401CA3
:10661000C549096820314875C34800682030407D6D
:1066200002218843801CC049096820314875BE4852
:1066300000682030407D04218843001DBA49096864
:1066400020314875B84800682030407D08218843D3
:106650000830B549096820314875B34800682030D2
:10666000407D102188431030AF49096820314875BA
:10667000AD4800682030407D202188432030AA4961
:10668000096820314875A84800682030407D4021C5
:1066900088434030A449096820314875A248006801
:1066A0002030407D8021884380309F490968203117
:1066B00048759D4800682030807D40084000401C9F
:1066C0009949096820318875974800682030807D95
:1066D00002218843801C94490968203188759248BA
:1066E00000682030807D04218843001D8E490968A0
:1066F000203188758C4800682030807D08218843CF
:106700000830894909682031887587480068203039
:10671000807D1021884310308349096820318875B5
:10672000814800682030807D2021884320307E49C8
:106730000968203188757C4800682030807D4021C0
:106740008843403078490968203188757648006868
:106750002030807D80218843803073490968203152
:106760008875714800682030C07D40084000401C9A
:106770006D4909682031C8756B4800682030C07DBC
:1067800002218843801C684909682031C875664821
:1067900000682030C07D04218843001D62490968DB
:1067A0002031C875604800682030C07D08218843CA
:1067B00008305D4909682031C87500F00BFB0320E3
:1067C000000200F0A1FB10BD10B58CB00446A1780A
:1067D000627808021043012802D102F09EFFC6E051
:1067E000A178627808021043022808D100204F499E
:1067F00008704F49087081204E490870B7E0A178B1
:10680000627808021043042814D101204749087017
:1068100000F0AFF8FFF78DFD822046490870E07860
:1068200088703C204449086044490120800300F0FE
:1068300023FE9CE0A17862780802104301214903FD
:10684000884234D12179E2780802104301280CD122
:10685000217AE27908021043012802D134490870F4
:1068600085E000203249087081E02179E278080251
:106870001043334988427AD1217AE27908021043E1
:10688000012874D12FA0006808902D4968468184A2
:106890002D49C1841D210185012181856421089133
:1068A00008AB012209A9104602F08DFA5FE0A17839
:1068B0006278080210430121490288420FD10E225A
:1068C00021461331684603F06FFA1E22E11C04A82A
:1068D00003F06AFA04A80FC8FFF717FD47E0A17894
:1068E000627808021043FF210131884209D1082251
:1068F000E11C0AA803F058FA0B990A98FFF763FC09
:1069000035E0A1786278080210430121090388422A
:106910002DD0A178627808021043082816D187206C
:106920000449087023E00000681000200D100020CA
:106930000C100020F01000202C100020056A000030
:106940000F18000064000000192A0000A178627886
:106950000802104301218903884208D0A178627897
:10696000080210430121C903884200D100BF0CB0C6
:1069700010BD00B587B001F0F8FE022002F0C2FAA7
:10698000002002F0C2FA02F0DFFEC54802F0D6F99C
:1069900003216846017300214173807B81088900CF
:1069A000491C68468173807B042188430146684600
:1069B00081731021C173002101740321417403A864
:1069C00002F0FEF8C0216846818205A90231B5486F
:1069D00003F018FA05A802F08FF9002002F0F1FE8A
:1069E000FFF7D9FB002168460171012141718171D6
:1069F000C11D0120000303F005FA01A802F0AEFA60
:106A000007B000BD10B5A8480088401CA649088002
:106A100008460088022804DB002008800120A349E2
:106A20000870A348007800281BD0A24800680028FE
:106A30000BD002F077FEFFF79CFF01F0A0FF9D480E
:106A40000068401E9B49086008E000F04BFD0123F0
:106A5000DB03012200211046FFF73CFB8020964912
:106A6000087010BD10B594480078802108400028B7
:106A700040D0914800784006400E8F490870084683
:106A80000078030003F0A3FC0F34090D34343434D0
:106A90001334171D2125292D340088A000F057FA42
:106AA00027E0854881788AA000F051FA21E090A083
:106AB00000F04DFA1DE08048817892A000F047FA7E
:106AC00017E095A000F043FA13E096A000F03FFA1B
:106AD0000FE097A000F03BFA0BE098A000F037FA27
:106AE00007E075488278C11C99A000F057FA00E0D1
:106AF00000BF00BF10BD10B50024974802F045F854
:106B000000280AD09448017894A000F020FA0622C8
:106B10009149491C94A000F041FA10BD10B50446FB
:106B200095480470954A0146954803F0F2F8102202
:106B3000934994A000F032FA10228F4994A000F0FB
:106B40002DFA10228D4996A000F028FA10BD10B53C
:106B500097480068182141180A7810464A781202AE
:106B600010438A7812041043C97809060843044682
:106B70000A2000F057FA01200004204000280AD023
:106B80008C4800688078C007C00F002803D08A496D
:106B90000878FFF7C3FF0120C0032040002812D06F
:106BA0008448006840788006C00F00280BD03C2045
:106BB0004049086081490120800300F05DFC7E4966
:106BC0004878FFF7ABFF01208003204000280AD05F
:106BD0007848006840784006C00F002803D0764906
:106BE0008878FFF79BFF0120C0032040002809D0D0
:106BF000704800684078C009002803D06E49487882
:106C0000FFF78CFF10BD72B6FFF793FB00F098F909
:106C10006BA000F09CF9FFF7ACFE01F0B0FE3C2049
:106C20002449086065490120800300F025FCFFF736
:106C300062FF66490720800300F098FB62B60020DF
:106C40001A4908700320000200F067F926E002F0FC
:106C50009AFC1648007800281CD0002013490870C0
:106C600013480078002804D00320000200F061F9E6
:106C700003E00320000200F050F955480088401C52
:106C80005349088008460088782803DB00200880E4
:106C900002F05AFDFFF7E6FE02F093FAD7E7000094
:106CA00008100020C9670000301000200E100020DE
:106CB0000D1000202C100020F01000204741505FE4
:106CC0004556545F434F4E4E4543544544000000E3
:106CD0004741505F4556545F444953434F4E4E45DC
:106CE000435445442825303278290D0A000000001D
:106CF000616E63735F66696E645F65727669636512
:106D00000D0A0000757064617465207273703A2515
:106D10003034780D0A000000616E637320656E6484
:106D20000D0A00006E6F7420616E63730D0A00001F
:106D30006E6F742062616E640D0A000053656375A6
:106D4000726974792073746172740D0A0000000016
:106D50006D73673A0D0A00000010002074797065A9
:106D60003A2564200D0A00006C6F63616C20616439
:106D700064723A0D0A000000381000200A11002049
:106D800048100020616573206B65793A0D0A000098
:106D9000706C61696E746578743A0D0A00000000C9
:106DA000656E637279707465643A0D0A00000000C4
:106DB000741000207010002058100020056A000098
:106DC00053594420496E632E0D0A00004F6B00009A
:106DD0001010002010B500240724A40322462146E9
:106DE000204600F0AEF910BD10B50120000400F0FF
:106DF000A7FA002801D1012010BD0120C00300F036
:106E00009FFA002801D10220F6E70120800300F05C
:106E100097FA002801D10320EEE70120C00300F01B
:106E20008FFA002801D10420E6E70020E4E710B53E
:106E3000002431480088401C2F4908802F480078E2
:106E400080210840002855D1FFF7CEFF04462C488A
:106E50000088A0423DD1002C3BD02A480088401C2D
:106E60002849088008460088142803DA00202349AE
:106E700008703DE0234800887D21C900884212DA6D
:106E80001E480078202108431C49087008460078F5
:106E9000BF21084019490870E006C00E0978084370
:106EA0001649087024E0154800784021084313492A
:106EB0000870E006C00E09780843104908700846BB
:106EC0000078802108430D49087000200D49088092
:106ED0000EE00A48007820210840002805D0074825
:106EE0000078802108430549087000200549088082
:106EF0000348048010BD0000601000205E100020D8
:106F0000641000206210002010B50446204600F0F6
:106F1000A7F8204600F0DAF910BD10B50446204667
:106F200000F0EDF910BD10B50446204600F0CEF992
:106F300010BD10B50446204600F0FAF910BD00005F
:106F400010B500220821104600F03AFB10BD0FB426
:106F500038B5002500240498002803D138BC08BCAB
:106F600004B0184700202849087105A80090274858
:106F7000009A049903F002FAC5B200200090802D17
:106F800000DD8025002405E02049085D00F054FB69
:106F9000601CC4B2AC42F7DB00BFDFE7F8B50546C2
:106FA0000E4617460024002D02D02846FFF7CFFFDB
:106FB00000241BE02046E117490F0918C910C90039
:106FC000611A03D1A1B212A0FFF7C1FF315D12A077
:106FD000FFF7BDFF601CC117490F0918C910C90090
:106FE000411A02D10EA0FFF7B2FF641CBC42E1DBE4
:106FF0002046E117490F0918C910C900611A02D0CB
:1070000007A0FFF7A4FFF8BD201000501A110020C0
:107010005B253034785D2000253032782000000078
:107020000D0A0000002108E0002201E0531C9AB282
:107030000A4B9A42FADB4B1C99B28142F4DB70474F
:10704000002107E0002201E0531C9AB2022AFBDB78
:107050004B1C99B28142F5DB704700008C0A00009E
:1070600030B5014600BF00BFFD4B1B684033102404
:107070001C1925782B4665782D022B43A5782D0405
:107080002B43E478240623438B43F54C2468403497
:1070900023741D0A65741D0CA5741B0EE374012274
:1070A000002049E00B461340002B43D0C3089B004F
:1070B000EB4C24681B191C4625782B4665782D025D
:1070C0002B43A5782D042B43E4782406234344075F
:1070D000E50E0F24AC40A343C408A400E04D2D6886
:1070E000641923701D0A65701D0CA5701B0EE370DA
:1070F000C3089B00DA4C24681B191C4625782B46D4
:1071000065782D022B43A5782D042B43E4782406C3
:1071100023434407E50E0024AC402343C408A400E5
:10712000CF4D2D68641923701D0A65701D0CA57064
:107130001B0EE3705200401C01231B079A42B1D181
:1071400030BDF0B503460C4600210020012100BFF0
:1071500049E01D460D40002D43D0C508AD00C04E8E
:107160003668AD192E4637783D4677783F023D4365
:10717000B7783F043D43F678360635434607F70EA9
:107180000F26BE40B543C608B600B54F3F68F61996
:1071900035702F0A77702F0CB7702D0EF570C5085B
:1071A000AD00AF4E3668AD192E4637783D4677783C
:1071B0003F023D43B7783F043D43F67836063543FA
:1071C0004607F70E0026BE403543C608B600A44F5A
:1071D0003F68F61935702F0A77702F0CB7702D0E97
:1071E000F5704900401C01252D07A942B1D19C4DE5
:1071F0002D6840351026AE1937783D4677783F0226
:107200003D43B7783F043D43F678360635431D438A
:10721000934E3668403635742F0A77742F0CB77446
:107220002D0EF5748E4D2D6820351426AE19377845
:107230003D4677783F023D43B7783F043D43F678BB
:10724000360635432543864E3668203635752F0A77
:1072500077752F0CB7752D0EF575002A1AD1804D54
:107260002D6840350C26AE1937783D4677783F02B9
:107270003D43B7783F043D43F678360635439D439A
:10728000774E3668403635732F0A77732F0CB773F5
:107290002D0EF573724D2D6840350C26AE193778DA
:1072A0003D4677783F023D43B7783F043D43F6784B
:1072B0003606354315436A4E3668403635732F0A15
:1072C00077732F0CB7732D0EF573F0BD6549096800
:1072D0000A461378194653781B02194393781B0406
:1072E0001943D2781206114301435E4A12681170A5
:1072F0000B0A53700B0C9370090ED17070475949EB
:1073000009680A461378194653781B021943937883
:107310001B041943D278120611438143514A126863
:1073200011700B0A53700B0C9370090ED1707047DB
:107330004C490968096841404A4A1268116070471F
:1073400001464948006802461378184653781B02E4
:10735000184393781B041843D27812061043084050
:10736000002801D0012070470020FCE710B502463C
:107370003E4800681823C3181C7820465C78240215
:1073800020439C7824042043DB781B061843374BAA
:107390001B681870040A5C70040C9C70000ED87096
:1073A000D043324B1B681874040A5C74040C9C7440
:1073B000000ED8742D480068203000784008400046
:1073C0002A4B1B6820331870294801600C200123C8
:1073D0008340284C236000BF10BD10B523480068CF
:1073E000182141180A7810464A78120210438A7808
:1073F00012041043C978090608431C490968102281
:107400008A181378194653781B02194393781B0482
:107410001943D27812061143884300281ED014481D
:107420000068002802D01248006880470F480068B2
:10743000182141180A7810464A78120210438A78B7
:1074400012041043C97809060843084909680870FE
:10745000020A4A70020C8A70000EC87010BD00004B
:10746000681000206C1000207010002074100020A4
:107470007810002000E100E070B504460D464D484C
:1074800000680078C007C00F002807D0494800688E
:107490000078400840004749096808706420FFF7F9
:1074A000CFFD444800680471210A4171210C8171AB
:1074B000210EC171404805603E48006800781021E7
:1074C000884310303B49096808703A4800680078E2
:1074D00040084000401C374909680870082000F047
:1074E00059F870BD10B53348006800784008400076
:1074F000304909680870082000F053F810BD10B535
:107500002C480068C078C007C00F00280FD0294859
:107510000068407840084000401C264909684870CF
:1075200025480068002802D023490868804710BD1C
:1075300010B520480068C0788007C00F00280FD021
:107540001C480068407802218843801C194909685A
:10755000487019484068002802D017494868804799
:1075600010BD10B513480068C0784007C00F002850
:107570000FD010480068407804218843001D0D4951
:10758000096848700C488068002802D00A49886859
:10759000804710BDC206D20E01219140074A1160FA
:1075A0007047C206D20E01219140044A8032116018
:1075B000704700007C1000209C11002000E100E0DA
:1075C00070B504460D4616464A480068407B0009DF
:1075D0000001001D47490968487346480068407B20
:1075E000F0218843403043490968487342480068A5
:1075F0000078000900012907090F08433E4909687E
:1076000008703D480068007880218843E1018022AD
:107610001140084338490968087037480068007805
:107620004021884340303449096808703348066077
:10763000062000F057F870BD2F490968487000BF58
:107640002D49096809788906C90F0029F8D02A4907
:107650000968097820229143274A126811707047FF
:1076600010B5254800680078C006C00F00280FD06C
:10767000214800680078102188431F490968087074
:107680001E48006800280BD01C490868804707E0A6
:107690001948006800782021884317490968087054
:1076A00010BD10B5164800680078C006C00F00284D
:1076B0000FD01348006800781021884310490968EA
:1076C00008700E48406800280BD00C494868804775
:1076D00007E00B48006800782021884308490968C2
:1076E000087010BDC206D20E01219140054A1160FA
:1076F00070470000681000208010002088100020D3
:107700008410002000E100E004488047044800475E
:10771000FEE7FEE7FEE7FEE7FEE7FEE7257700006F
:10772000C160000001480249086070470024F4006D
:1077300090100020FE49FE4AC96A48324978515CDF
:10774000414303E000BF00BF00BF00BF491EF9D2A4
:10775000704710B5F6491222496B8A710122CA712D
:1077600008220A7200224A72C278837812021A43EF
:107770000A73120A4A734278037812021A438A7211
:10778000120ACA724279037912021A438A73120AE0
:10779000CA73C2798379100218430874000A4874C6
:1077A0000521E44A0C209047012010BDF1B5E24CC0
:1077B00082B02020A04706464020A04705468020F2
:1077C000A047DB4F0446F96A0020087148718871B0
:1077D000C8710872D9488047F86960308179012200
:1077E000114381716420FFF7A5FFD54880476420CD
:1077F000FFF7A0FFD349012088473146CE4E202015
:10780000363EB04729464020B04721468020B04749
:10781000CD48804769460298087001220421CB4C6C
:107820006B460020A047FEBDF0B5074600208FB094
:10783000C74E14460D46009000292DD02870687060
:10784000322201AB00200099B04768468179427925
:1078500008021043B8421FD86846007917286846C6
:1078600015D0017BC27A080210432870000A6870A4
:107870006846817A427A0802B649104388420BD0A2
:10788000684601790098081880B20090D8E7027E17
:10789000C17D10020843E8E7002C1BD000202070B7
:1078A00060700546322201AB29460320B047684686
:1078B000C088B84210D16846007AC009684602D034
:1078C000817D427D01E0817A427A08021043207076
:1078D000000A60700FB0F0BD9E498842FAD0684639
:1078E0008088401985B2DDE7F7B591489EB0406BBE
:1078F000002409218171072117462546C1713222D2
:10790000934E0DAB29460220B04708A8027D0DAE6C
:10791000182A6DD06846818F08AB987D5B7D000288
:1079200018431E9B984275D31F9B984272D8B94248
:1079300070D100201C900C20254645437C486A46A7
:10794000406B518F28180172090A41727848002152
:107950008172012242726A46508F10AA9085D185A9
:107960002A321AA9FFF760FF08225101774F1AAB9C
:107970000020B8476E48807A01283CD06C4900202E
:1079800048723222724F6B4603201C99B847F17936
:107990006F46B279788809021143884257D1387905
:1079A000400603D56C488047002834D068460079EB
:1079B000810606D5C0066849C00E103188470028E8
:1079C0002BD0634A6846022140883E329047002807
:1079D000684625D00079C0096846008828D0153847
:1079E000C6B253483946406B32462818153126E056
:1079F00010A8018990E74E4E00207072706BF77AE4
:107A000028183A4655490A3002F0CEF9706BBF1C6F
:107A1000C77125E02EE0052200E00C221E9901E04E
:107A2000418802224C4B08202033984721B0F0BDFA
:107A3000C01FC6B23E483246406B2818F91D0A30B6
:107A400002F0B2F93A48B61C406BC67108E04149F1
:107A5000884205D039881C98081880B21C9090E79D
:107A6000641C0DD032480421406B324AC079801C1E
:107A70009047DBE73749884202D0501985B23EE78C
:107A80000A22CBE730B4062913D0417C037C0A02DA
:107A900041781A430B020478C178807809022343A5
:107AA00001438B4208D919462B4B01220820203371
:107AB00022E041790379EAE70520C002824202D040
:107AC000401C824202D11846254B15E025488242CF
:107AD00003D11846204B3C330EE02248401C824222
:107AE00003D118461E4BC63306E0100A2928184653
:107AF00001D030BCF8E61C4B30BC1847F0B5064648
:107B000093B000200A4C0F90616B0B208871002508
:107B1000A5720120607268468680C580821C694615
:107B20003046FFF781FE082251016B4600201DE020
:107B3000941000205D1A000015460000490E000058
:107B4000514F000079090000490F0000DD320000AC
:107B500055200000FFFF00002531000073220020A7
:107B60006F2200000228000013240000FA4FB847DB
:107B7000A07AFA4F012814D020464572F84D3222DF
:107B800002AB03200F99A8476846408902ACB04277
:107B900047D16846007BC1096946098907D0153974
:107BA00006E06572E57AEF492A46606B2EE0C91F50
:107BB000CDB2400604D5E9482038804700281CD0C3
:107BC0006846007B810606D5C006E449C00E103920
:107BD0008847002813D0E24A022130463E329047BF
:107BE00000280ED0162D00D916256846007B2A469F
:107BF000C00908D02146153106E005221CE00C2200
:107C00001AE0022218E0E11DD748406BC01D02F0C7
:107C1000CBF8002D0FD00421D44A681C904713B034
:107C2000F0BDD349884206D0684601890F980818EC
:107C300080B20F90A3E7012231460A20B847EEE751
:107C4000F3B5C94C0D46616B93B00D2088710026C9
:107C5000A672012060726946139808814D818A1DC1
:107C600001A91398FFF7E0FD08225101BA4F01ABBB
:107C70000020B847A07AB94F012815D0002021462E
:107C800048723222B64C03AB31460320A047684607
:107C9000C089139988425AD16846007CC109694657
:107CA00089890CD015390BE0002161722046E27AF7
:107CB000406B1446AB49C01D02F076F83BE0C91F8B
:107CC000CCB2400604D5A54820388047002819D0FA
:107CD0006846007C810606D5C006A049C00E103952
:107CE0008847002810D09E4A02213E3213989047C0
:107CF00000280BD0A54232D8601BC4B2162C07D97D
:107D0000162407E005222BE00C2229E0022227E0BE
:107D1000002C29D06846007CC00902D070191530AB
:107D200001E07019C01D81B28F488D4D436B032057
:107D30002246DB1DA847002C19D0FF2C0FD0FE2CAB
:107D400012D00421601C894A904715B0F0BD8849C3
:107D500088420CD068468089801986B291E7072254
:107D60000C201399B847F0E704210120EBE701222A
:107D7000F6E7F3B500209BB0054618901B984278B3
:107D8000037810021843891E199115903222744C01
:107D900008AB03201899A0476846418C159808AE97
:107DA00081427DD13079C1096946098C04D01539E9
:107DB000CDB2B27C717C03E0C91FCDB2B2797179CA
:107DC00014020C43400604D564482038804700283C
:107DD00019D008A80079810606D5C0065F49C00EF3
:107DE00010398847002810D0624FBC4206D05C4A48
:107DF00008213E3215989047002808D01998A842CB
:107E000007DD0D2287E0052285E00C2283E00322B6
:107E100081E0002269461598FFF706FD6846448018
:107E2000159981801998C2B2684682711B99C01D4C
:107E3000891C01F0B9FF68464088B84241D100244E
:107E400037E06A4693880A22624357184A4ABC467A
:107E5000BF187A7D3F7D12023A43934227D10F2209
:107E600092018918097D012909D169460A7ACB79DD
:107E700011026246194312181176080A50766846B4
:107E8000018810A801836846818810A8418368464C
:107E9000017AC0790902014310A8818316AB00E082
:107EA00016E00121062249032B4F0020B847641C2D
:107EB000E4B22D48C16A172040010A18D27BA242C1
:107EC000BFD801211E224902234C6B460020A04747
:107ED000F078B178000208432549884208D07078CC
:107EE0003178000208431899401880B218904DE785
:107EF000002D0FD01C4C1321606B1C4A8171042192
:107F0000012090470F21E06A012289014018427444
:107F10001DB0F0BD0122114B122015999847F7E7CB
:107F2000F3B599B0002017901998417800780D02A8
:107F3000054332220A4C08AB03201799A047684634
:107F4000408C08AEA8427AD13079C009304615D0AD
:107F5000817C407C14E00000DD32000045310000EF
:107F60005520000073220020941000205D1A0000AC
:107F7000FFFF000002290000E20200008179407941
:107F80000C020443002269462846FFF74DFC684670
:107F9000448085801A98801EC2B268468271199901
:107FA000C01D891C01F000FF68464088FC498842DA
:107FB0003ED1002434E06A4693880A22624357186F
:107FC000F84ABC46BF187A7D3F7D12023A4393427D
:107FD00024D10F2292018918097D012908D16A460E
:107FE000117AD2790902114360440176090A417677
:107FF0006846018810A881826846818810A8C182DD
:108000006846017AC0790902014310A80183012161
:1080100006224903E44F15AB0020B847641CE4B2C4
:10802000E248C16A172040010A18D27BA242C2D896
:1080300001211E224902DC4C6B460020A047F0784B
:10804000B17800020843DA49884208D07078317864
:10805000000208431799401880B2179069E7D34887
:108060000121C26A0F208001101841741BB0F0BDBD
:10807000F3B597B00020179906461590487809780F
:108080000402CC4F0C433222CB4D6B460320159992
:10809000A84768464088A0424DD168460079C1098A
:1080A0006946098805D01539CEB269468A7C497C73
:1080B00004E0C91FCEB269468A79497915020D4399
:1080C000400604D5BB482038804700283FD068468A
:1080D0000079810606D5C006B649C00E103988471A
:1080E000002836D0AE48854206D0B34A0821204643
:1080F0003E32904700282ED000220DA92046FFF7DF
:1081000093FB6846C58604871798C1788078090272
:108110000143684641871898801EC2B208A80277BA
:1081200017991D30091D01F03FFE202251019E4D7F
:108130000DAB0020A847684640889D4988420CD076
:10814000684601881598081880B215909BE70522AB
:1081500018E00C2216E0032214E0002E11D0934CFC
:108160001898626B17219171401C944A80B20421C7
:1081700090470F22E16A012092018918487419B0D2
:10818000F0BD012221461220B847F8E710B5044699
:108190000278401C012A1ED08449022A496B29D04A
:1081A000032A17D1427803781002184302282CD0F2
:1081B000102835D008284FD00A2852D00C2857D084
:1081C000122860D0522863D0162803D1E178201DF0
:1081D000FFF74EFF10BD41780278080210431328C4
:1081E000F8D177488047231D022291036E4C00206E
:1081F000A04710BD42780378100218430128F8D137
:10820000487A4007400F487210BD0320887117203C
:10821000C871002008720421684A0320904710BDED
:10822000E078062812D0607D217D02020A43607941
:10823000217900020843E179A379090219438842B0
:1082400007D90122014610205A4B03E0607A217AB7
:10825000EBE75C4B984710BDE178201DFFF712FC5F
:1082600010BD6079217900020843FFF747FC10BD7B
:10827000E079A2790102114360792279000210436A
:10828000FFF7DEFC10BDE178201DFFF772FD10BD89
:10829000E178201DFFF744FE10BD10B514460628F6
:1082A00007D142480622406B82712246C01D01F070
:1082B0007BFD641C414AA0B20421904710BD10B55B
:1082C000414B1446187059700A462146981C01F01B
:1082D0006BFD3648416C002901D03B48884710BDF2
:1082E00010B5C178827809021143042907D0052905
:1082F00035D0062902D13549001D884710BD0479C3
:108300000F2C21D00ADC230002F061F80E161E1695
:108310001E161E161E161E161E161E16192C13D0FD
:1083200006DC112C10D0132C0ED0172C04D10BE02E
:108330001B2C09D01D2C07D041780278090211436B
:10834000234A001D904710BD41780278090211436D
:10835000491E421DC9B22046FFF7B1FF10BD1749A3
:10836000D431C9E7F8B504460078C043800703D08C
:10837000A01CFFF7B5FFF8BDA178114E0B4DC23E12
:10838000144F686B0B0002F022F80E082930428E61
:108390008E458E588E637077878EE01C0E491FE0E5
:1083A00002290000E2020000DD32000094100020EB
:1083B000FFFF000045310000552000005D1A00005D
:1083C000490E000085210000A8110020811E000038
:1083D000352E0000E1130000D74A0000FE49E01CE2
:1083E00088470028C7D128200EE0E86920300179AD
:1083F0004908490001716869202141704178890666
:10840000FCD5F6488047E078FFF7D0F9F8BDE01CCE
:10841000F34928E0F248FE308047E879012804D18A
:10842000F048FFF796F90020E87100230121EE4C97
:108430001A4689031846A047F8BD09218170EB4B05
:10844000E96A0822C918C01C01F0AEFC092120E02D
:108450000220B847696B0B20887001210320B047C8
:10846000DE49022020398847F8BDDC490120203947
:1084700088470220B847F8BD0C2181700621C170E1
:10848000DB490171090A4171012181710021C1712A
:1084900006210320B047F8BD0022D14BE11C104655
:1084A000C03B9847F8BD07228270C1700221F0E7F7
:1084B000F0B5CC4C0025533C6469E678360701D50D
:1084C0000020F0BD2646C036377947556D1CEDB209
:1084D000022DF9D346780125F709002F08D0F606BA
:1084E000F60E0E70157042785206D20F1A7004E024
:1084F000B3069B0E0B7000231370BA4B0A78533BE4
:108500005B69801CC033272A0CD20022C03403E0F0
:1085100026798654521CD2B20E789642F8D85D72F3
:108520000120F0BD5D72CBE7FEB500206946AC4E80
:108530000871AC4C0870E43E0872533C02AB6A46CA
:1085400001A9A06BFFF7B4FF002834D0207B0028DE
:1085500001D0401E20730820B047002803D002201D
:10856000B047002818D06846007801281AD0A56BBB
:1085700028780007000F0528E0D19E49A81C8847ED
:10858000287886224006C10FE06A11540622A91CF1
:10859000873001F009FCD1E7012168460170007ABB
:1085A000002805D068460179A06BFFF7DBFEC5E720
:1085B0003D20FFF7FBF8FEBDF0B58F498BB00420DE
:1085C000884700280DD08C4904201A3188478B48F1
:1085D000804782481C3080471620FFF7E7F80BB031
:1085E000F0BD87488047002810D07E4C533CE06A9D
:1085F00082791107F3D5C179CB071BD08149973018
:108600008847E06AC179490849001FE07C4D734EF4
:10861000724C883538366F462C3407E06846A847D8
:108620000128DCD168460178781CB047A0470028B3
:10863000F4D0D4E78B070BD5724A01468F311C3238
:108640008D309047E06AFD22C1790AE0C171C6E72A
:108650004B0708D56B496031A7308847E06AFB2299
:10866000C1791140F2E70907F72500290ADA427AB1
:1086700001461046634A0A3142329047E06AC179A6
:108680002940E3E72A40827103468D332A220821DC
:10869000554C0020A047A2E770B50178012915D1FB
:1086A0008178427808021043012810D04D4C533C89
:1086B00008280FD002283FD0042840D0102840D0EE
:1086C00020284FD0402801D14F48804770BDFFF788
:1086D00073FF70BDE06A00258030467945714649D8
:1086E00001201031884745488047E36A1846FF302B
:1086F0002130057185719D71DD711D72417C817420
:108700008520C654E0692030017922784908490063
:10871000D207D20F11430171606B07220178324CEE
:10872000C906C90E01704178C906C90E41700221FF
:1087300000208633A04770BDFFF7F6FE70BD3348BA
:10874000C3E7E06920300179490849000171606997
:108750002030407D400701D53E2000E00820FFF793
:1087600025F870BD28480C38AFE7F0B589B0002572
:1087700068460572264F142038701920400103E026
:1087800000BF00BF00BF00BF401EF9D20121214C35
:108790007F20A04701210F20A0471E4E203E02A9A6
:1087A0000F20B0476846007A8007F8D56846007AFF
:1087B000400841084900684601720E20A047002188
:1087C0000F20A0476846017A012001430E20A047F0
:1087D00000211020A0471FE0C34E000005500000FC
:1087E000B5140000E7100020DD320000C7030000D0
:1087F0003A090000B347000021080000490E0000BC
:1088000059400000D31D000079110000DF0F000067
:10881000201000501751000000211120A047002116
:108820001F20A0476846057200BF6946087A401CB1
:10883000C0B20872C828F7D3F748C178017001792F
:1088400041704179817001211020A0470121112040
:10885000A04701211F20A0470220387000217F205F
:10886000A04702A93D20B0476846017A4020014355
:108870003D20A047E9488047002108907F20A0477D
:1088800002A93D20B0476846017ABF2001403D2043
:10889000A047E34EF06A807801284DD000217F2068
:1088A000A04700210320A0470F210420A047012753
:1088B0006846077047704580DA480190DA49684693
:1088C000884768468581C5818782C58202210182E9
:1088D0004182FF21DC3101834183D448D249079092
:1088E00003A8BE318847CE48CF4940306031884721
:1088F000F06A0146FF302130C27CB273C574F06962
:1089000020300079384030700F208001081805743D
:10891000C74D02A90320A8476846007A502813D003
:1089200002A90420A8476846017ABB48203850298C
:108930000BD00A290BD012E000217F20A0470F2185
:108940000320A0470021B0E7FEE7FF2100E0D0218F
:10895000C17101217F20A047BF216620A047089850
:1089600009B0F0BD10B5AE48C069203001794908A2
:1089700049000171A9480A308047012010BDF8B5AF
:10898000A74CAC49E06A36308847606B3A230178DF
:1089900000250A09E16A12015B5CBF261B071B0F59
:1089A0001A4302701207120F012A70D00B462333AC
:1089B0005A7F1B7F12021A430B4641331A70120A68
:1089C0005A7002784B7A32409B011A435206520E7B
:1089D000027065235B5C42789B1D92099B069201A5
:1089E0009B0E1A4342700622801C0A3101F0DCF90A
:1089F000E16A6520425C606B6631083001F0D4F9B1
:108A0000E06A20300577606B8B4A41788906890ED1
:108A1000891C9047606B01780A091201121D0270CF
:108A2000E16A32404B7ADB075B0E1A430270452342
:108A30005B5C42789B1D92099B0692019B0E1A4338
:108A400042700622801C0A3101F0AEF9E16A45202D
:108A5000425C606B4631083001F0A6F9606B764AE3
:108A600041782C328906890E891C9047E06A714E44
:108A7000014620316F4F8B7E0122683E403F012B23
:108A800033D0002B41D0022B3FD058E0FFE70A46FD
:108A90004032D37813714B7A0278DB0732405B0E99
:108AA0001A43027086235B5C5206520EDB011A43A6
:108AB000027042780A31920992010C324270062209
:108AC000801C01F071F9606BE16A06220830873181
:108AD00001F06AF9E16A03223C204254554A86209B
:108AE000405C323A873190478DE74030007900286A
:108AF00025D060698274130AC37402750B7FCA7E25
:108B000001210846B047B84720E0034641335C786E
:108B10001B7824021C4312D01446414A5269147532
:108B20000B7FCA7E2130417F007F09020143012073
:108B3000B047B847414845748474C57406E00023C3
:108B4000364C01211A461846E434A0470120F8BDEE
:108B5000324910B528318847314C3649E06A12391C
:108B60000A308847A0780121002809D0E06A63789C
:108B7000827A9A4200D0002180304171012010BDDC
:108B8000A170E06AC07A6070F8E710B52449072246
:108B9000C96A093101F008F9012010BD1F4910B55B
:108BA00036318847012010BD10B51C4CB834A047A1
:108BB000012010BD194910B554318847012010BD5E
:108BC000194910B5C4398847012010BD134910B5A3
:108BD00044318847012010BD10B51149097A012997
:108BE00001D1FEF7B6FD012010BD0F4910B54E3979
:108BF0008847012010BD0C4910B540398847012035
:108C000010BD10B5064C627A012A19D0064A6632A8
:108C10009047012010BD000020000340F931000002
:108C20009410002099860000DB3500008D81000043
:108C3000815300002D4700003D500000000002401D
:108C4000162800D91620E072C2B2FE4801F0ACF836
:108C50000120A072DDE77CB50546401C4178007814
:108C6000090201430126F84C02291DD000220429E3
:108C700021D02046C069203010291ED0082922D0DA
:108C8000C81FF93808D10822E91C684601F08CF8A1
:108C90000199009801F040F8EB484F3001F0A8F836
:108CA0000146284688477CBD0722E91CE74801F0B9
:108CB0007BF82672F0E72272EEE701794908490055
:108CC00001716673E8E7617B012908D10179237896
:108CD00049084900DB07DB0F194301716273DB4868
:108CE0002A22E91CC01D01F05FF8A07B0128D3D126
:108CF000E67006202073CFE71CB5417802780902A0
:108D00001143D14C6A4611804D342170090A6170BB
:108D1000801C01F06DF8A11C01F074F800A9CC488A
:108D2000023101F06FF8CB496846884701201CBD2D
:108D3000C84910B53831884701206BE7C54910B5DF
:108D400098318847012065E710B5BF48C249C06A1D
:108D50004218517A127A090609141143BE4A921E2A
:108D60008218507A127A000600141043081A09215A
:108D7000083001F005F8012901DD01204AE7002053
:108D800048E7B148B449C06A4218517A127A0906D4
:108D900009141143B04A921E8018427A007A1206D2
:108DA00012140243881A914201DD401E00E009308E
:108DB000C0B2704700B5FFF7E4FF022801D90020D8
:108DC00000BD012000BD70B514460D460646FFF7F4
:108DD000D8FF022806D922469E4C29463046AE349A
:108DE000A04770BD002070BD30B5974A506901465C
:108DF00020314B780C78D26A1B0223432232547CF8
:108E0000157C22022A439A180A76120A4A7672229E
:108E1000125C002A09D06030827C012AFCD088785C
:108E2000022210438870012030BD02466032937CDC
:108E3000002BFCD06030827C012AFCD0EFE710B51B
:108E4000040001D1FFF7D0FF844920468847012064
:108E5000E0E6FEB507467C484069017A8906CE0FF8
:108E6000017ADF221140017201217D4C7F20A04751
:108E700000257B4C29460A20A0476420FEF75AFCB7
:108E800002210A20A0477748FEF754FC744C203C8E
:108E900031E00120FEF74EFC69460A20A0476846F3
:108EA0000078400727D569462620A0476846007805
:108EB00085078108AD0F89006846017001A925204A
:108EC000A047684680888000284381B268460078C1
:108ED000FC28CDD00028CBD063488142C8D00029DF
:108EE000C6D059484169087ADF2210407201104308
:108EF00008720120FEBD6D1CBD42B9D2C9E75748BA
:108F000010300047554918310847544910B52031F1
:108F100088474D48524CC06A807801280AD0002109
:108F20007F20A04700210320A0470F210420A04755
:108F300001206FE600217F20A0470F210320A047DA
:108F40000021F3E74049C96A497801700120704760
:108F50003D49C96A897801700120704770B504469F
:108F600001783948627800290BD0456AE01C6A70A4
:108F700000F03EFFE91C00F045FFA078A87001203A
:108F800070BD856AF2E7354810B55630804701203C
:108F900040E630B42C4A0B24536B80079C71DA797D
:108FA000800F920892000243FB2002408800024397
:108FB0005007400FD87106212C4A30BC02201047C0
:108FC000214840694030407D70477047F8B51E4EDB
:108FD000B56A31460F6A68782037012802D1F87CDB
:108FE00000077DD11848A9788069203000900129B8
:108FF00013D1E81C00F0FCFE0146009808228218FC
:109000001378184653781B0218439378D2781B04C0
:10901000184312061043014262D17469A078C00758
:1090200002D16078C0075BD1A078800702D4607855
:10903000800755D4A078400702D4607840074FD409
:10904000A07815E07322002094100020C2110020A7
:10905000578C0000A3350000C3020000D536000085
:1090600017510000B80B0000FF0300005D1A00005C
:10907000000702D46078000732D4A078C00602D47A
:109080006078C0062CD4A078800602D46078800670
:1090900026D4A078400602D46078400620D4A07878
:1090A000C00902D16078C0091AD1FB48C669F07BBB
:1090B00040084000F073F07BEF2108406978C90751
:1090C000C90E0843F073F07BDF210840A978C90777
:1090D000890E0843F073E81C00F08AFE314600E078
:1090E0006EE020310872020A4A72020C8A72000E87
:1090F000C872307B0121084330736E78012E02D193
:10910000F87C000745D1A878012812D1E81C00F0AE
:109110006FFE009908228A181378194653781B02AB
:1091200019439378D2781B0419431206114308425D
:109130002FD1A078C00702D16078C00729D1A078CC
:10914000800702D46078800723D4A078400702D437
:10915000607840071DD4A078000702D4607800072B
:1091600017D4A078C00602D46078C00611D4A078C5
:10917000800602D4607880060BD4A078400602D422
:109180006078400605D4A078C009B7D16078C009DE
:10919000B4D06420FEF7CEFABF48C069017B49080D
:1091A00049000173C17BEF221140C173C17BDF22F3
:1091B0001140C17300212030017241728172C1726D
:1091C000F8BD10B5B448C16A0F2080010818017CB1
:1091D000012905D1407C012802D020BF012019E5DA
:1091E00072B6FFF7F3FE62B6F8E7AB49C96B487099
:1091F00008780122104308700878C007FCD1487035
:10920000704710B5A44C0F20E16A800108188078DF
:10921000012802D0022810D012E072B6E06BC178AB
:1092200049084900C170B920FFF7DFFFE06BC17842
:1092300001221143C17062B602E0984900208847BC
:109240000120E7E49449C96B0A7801231A430A70A4
:109250000A78D207FCD1897801707047F8B50746C3
:10926000002672B68C4CE06BC17849084900C17089
:109270000620FFF7BAFFE06BC17801252943C170D2
:1092800062B672B6C17849084900C1702846FFF736
:10929000ACFF3846FFF7A9FFE06BC1782943C170E6
:1092A00062B672B6E06BC17849084900C17005200A
:1092B000FFF79BFF6846FFF7C5FFE06BC1782943C6
:1092C000C17062B668460078C007EAD172B66D46D2
:1092D000E06BC17849084900C1700520FFF785FFA0
:1092E0002846FFF7AFFFE06BC17801221143C17040
:1092F00062B668460078B84204D005200004761CA7
:109300008642E3D3F8BD10B5634C0F20E16A8001BB
:1093100008188078012802D0022811D017E072B610
:10932000E06BC17849084900C170AB20FFF75DFFD1
:10933000E06BC17801221143C17062B61E2004E0C7
:10934000564901208847FF202D30FEF7F3F9012010
:1093500060E4F3B581B0FFF7D6FF0020FFF77EFF92
:1093600000264D4C012555E0019831030F1872B6C7
:10937000E06BC17849084900C1700620FFF735FF4E
:10938000E06BC1782943C17062B672B6E06BC178F8
:1093900049084900C1700520FFF727FF6846FFF71D
:1093A00051FFE06BC1782943C17062B6684600780E
:1093B0008007EAD572B6E06BC17849084900C170F0
:1093C0002020FFF712FF3802000EFFF70EFF3804CF
:1093D000000EFFF70AFFF8B2FFF707FFE06BC17856
:1093E0002943C17062B672B6E06BC1784908490082
:1093F000C1700520FFF7F9FE6846FFF723FFE06B19
:10940000C1782943C17062B668460078C007EAD1C6
:10941000761CF6B202988642A6D30C20FFF71EFFF8
:10942000FFF7EFFE0120FEBDF1B580271A4E1C4D5F
:10943000002472B6306B163000F0DAFC610140187F
:109440004A19184B2021984762B6641CA4B2BC424A
:10945000EFD30098322148434019FF2200F0B6FCB8
:10946000306B163000F0C4FC0121FFF772FF0024BE
:1094700072B6306B163000F0BBFC610140184A191F
:10948000094B2021984762B6641CA4B2BC42EFD3BA
:10949000064880470120F8BD94100020B953000011
:1094A000F3110020AD420000BD430000490F000051
:1094B000F8B58027F64CF74E002572B6206B1630B3
:1094C00000F096FC690140188A19F34B2021984757
:1094D00062B66D1CADB2BD42EFD3FF21FF22F53164
:1094E000EC4800F073FCE06A0021FF302130017489
:1094F00041748174206B163000F07AFC0121FFF773
:1095000028FF002572B6206B163000F071FC69014F
:1095100040188A19E14B2021984762B66D1CADB204
:10952000BD42EFD372B6DE48804762B60120B2E793
:1095300070B5D74D0446E86A0E46FF308EB0012163
:1095400021300174447484746846017007223146E6
:10955000401C00F029FC2A22F11D02A800F024FC86
:1095600072B6286B163000F043FC32214C43CB4BD3
:1095700000196A46984762B672B6C948804762B613
:1095800001200EB070BDF8B5C14C0026E178204630
:10959000407C012946D0A17901294CD0617901296B
:1095A0004DD0207901283CD18027002572B6206B50
:1095B000163000F01DFC6901B64A40188A18B64BF7
:1095C0002021984762B66D1CADB2BD42EED3206B30
:1095D000223000F00DFC0005E17B000D4118AD4884
:1095E000227C0818AF4900F0DFFB72B6206B163002
:1095F00000F0FEFB0121FFF7ACFE62B6002572B65B
:10960000206B163000F0F4FB6901A24A40188A185A
:10961000A24B2021984762B66D1CADB2BD42EED37D
:10962000267138E7FFF700FF9A49607C3139FFF770
:109630007FFFE6702FE7FFF73BFFA6712BE7FFF7F1
:10964000F3FE667127E770B5FFF79DFF964900208E
:1096500088478F4AD46920464030417E49084900F6
:109660004176E07B01252843E073E17BEF20014058
:10967000506A4278D207D20E1143E173E17BDF22B8
:1096800011408278D207920E1143E173C01C00F0A2
:10969000AFFB20342072010A6172010CA172000E2E
:1096A000E072607928436071012070BD10B5FFF74A
:1096B0006AFF77490C228869821813781846537814
:1096C0001B0218439378D2781B04184312061043E8
:1096D000C243C869014640310A77130A4B77130C1D
:1096E0008B77120ECA77C27B01210A43C273C27BF9
:1096F000EF231A40C273C27B20231A43C2738A1E0F
:1097000020300272130A4372130C8372120EC2725B
:1097100042790A43427100200BE464491120087029
:109720000120704710B5624880476420FEF702F8B8
:10973000604901200870FF20F530FDF7FBFF5B4812
:1097400002210170012023E4F8B5514CE06920307A
:1097500000790026C507207AED0F544F002805D167
:109760003878C00702D00126FFF7DCFFE06920301F
:109770000179490849000171207A012803D1606903
:10978000C17B2929FCD17D20C001FFF762FB11219B
:109790000028E0690AD020300279520852002A439A
:1097A0000271002E00D03970012074E62030027959
:1097B000520852002A430271002E00D03970002056
:1097C00069E630B5324C8DB005466074206B1630BA
:1097D00000F00EFB32214D432F4B40196A4698474B
:1097E00068460078012815D1E06A012285210A54D3
:1097F00000A907228630013100F0D6FAE06A2A2259
:109800008D3002A900F0D0FAE06A617CFF3021308F
:109810004174817401200DB030BD30B51C4C05463B
:10982000206B8DB0163000F0E3FA617C3222514398
:109830004018194B6A46322198476846007801283B
:1098400001D00020E7E7E06A012180304171072262
:109850002846694400F0A8FA2A22E81D02A900F06F
:10986000A3FA0120D7E701B50A4831226946313809
:1098700000F09AFA06490120C87008BD0449012089
:109880008871704702490120487170470A4B184798
:1098900094100020F3110020AD420000BD430000F1
:1098A000490F0000F3210020B953000020100050A0
:1098B0004B370000000002404B3C0000F7B5019818
:1098C000802801D90020FEBDFE4D287A00280CD04A
:1098D0000098E87301982874FB48019A029900F0F7
:1098E00063FA012028710120FEBD8027F74E002475
:1098F000286B163000F07CFA610140188A19F44B8D
:1099000020219847641CA4B2BC42F1D3286B2230BA
:1099100000F06EFA01050098090D08188019019AE7
:10992000029900F041FA286B163000F061FA01212B
:10993000FFF70FFD0024286B163000F059FA610183
:1099400040188A19E34B20219847641CA4B2BC42FA
:10995000F1D3C8E710B5FFF7FCFC40E4DC4B184737
:10996000DC4B184710B5D74C96B0206B0A3000F08E
:109970003FFAD74B6A46532198476846007800283B
:1099800002D0012803D009E0206B123001E0206BE7
:109990000E3000F02DFA0C21FFF7DBFC012016B091
:1099A0001DE4CD4B1847FFB5802781B00D46064614
:1099B000002472B66001C549C54B42182021984762
:1099C000641CA4B2BC42F5D3BE48006B0A3000F060
:1099D0000FFABE49C04B441820784633002802D005
:1099E000012849D08DE00120049A03999847002866
:1099F00072D0204620212A3000F0EFF9002E12D03C
:109A00000020325C002A0CD021182031401CC0B24A
:109A10008A722028F5D306E021182031401C8A7272
:109A2000C0B22028F8D3204605214A3000F0D5F9ED
:109A3000002D14D00020295C00290DD022184032BE
:109A4000401CC0B291720528F5D308E021184031BE
:109A5000401C8A72C0B200E000220528F6D32146DD
:109A6000433103980873000A4873891E04980874E8
:109A7000000A4874012043E00020049A03999847A3
:109A800000284FD02021601C00F0A7F9002E10D034
:109A90000020315C00290AD02218401CC0B251704D
:109AA0002028F6D305E02218401C5170C0B22028AF
:109AB000F9D320460521213000F08FF9002D13D075
:109AC0000020295C00290DD022182032401CC0B291
:109AD00051700528F5D307E024E022182032401CFD
:109AE0005170C0B20528F8D321462231039808717D
:109AF000000A4871891E04980872000A4872002002
:109B0000207001210020FFF724FC704D714E0024CD
:109B1000600142192021B047641CA4B2BC42F7D3B3
:109B200062B6012005B0F0BD664948640120704767
:109B300064490222496B8A71C871000A08720421C3
:109B4000664A032010475F4A0423526B9371D07119
:109B5000000A10725172080A9072604A1946052074
:109B6000104770B5064657481D46406B0624049BB7
:109B70008471C671360A06724172090A8172C27214
:109B8000110A01732A4619460D3000F00DF904211F
:109B9000524AE81D904770BD70B51546494A0826DF
:109BA000546B2A46A671E071000A20726172090A9C
:109BB000A172204619460B3000F0F6F86D1D474A99
:109BC000A8B20421904770BD3E490A22496B8A71B0
:109BD000C871000A08720421404A03201047394A1C
:109BE0000C23526B9371D071000A10725172080AE3
:109BF00090720421394A0520104710B504463148B7
:109C00000E22406B82712246C01D00F0CDF8042167
:109C1000324A601C90477FE570B51546294A1026E8
:109C2000546B2A46A671E071000A20726172090A1B
:109C3000A172204619460B3000F0B6F86D1D274A78
:109C4000A8B20421904770BD70B50C461D49154659
:109C50004B6B12229A71D871000A1872184622466C
:109C60002946093000F0A0F8E41C1C4AA0B20421E7
:109C7000904770BD70B50C46124915464B6B522289
:109C80009A71D871000A187218462246294609307E
:109C900000F08AF8E41C114AA0B20421904770BD7C
:109CA00070B51546074A1626546B2A46A671E07110
:109CB000000A20726172090AA172204619460B300F
:109CC0000EE0000094100020F3210020F31100208A
:109CD000AD420000BD430000FF3D00005D1A0000E2
:109CE00000F062F86D1D234AA8B20421904770BDB0
:109CF00021491822496B8A71C87104211D4A02202A
:109D000010471D491E20496B1A4A88710421012001
:109D10001047184B0C3B184773B582B06846408912
:109D20001649884224D168460024134D86891BE0D9
:109D30000A21614309180A7ACB7910021843864236
:109D400010D18A7A4B7A12021A436B461A708A7AB9
:109D50004B7A11021943090A6B4659700220694671
:109D6000FEF74FFF641CE4B2286C0178A142DFD8F3
:109D70007FBD00005D1A0000941000200229000041
:109D800070B500242546002801DA0124404200294C
:109D900001DA0125494200F03EF8AC4200D04042D1
:109DA000002C00D0494270BD03460B439B0703D0F3
:109DB00009E008C9121F08C0042AFAD203E00B7890
:109DC0000370401C491C521EF9D27047D2B201E008
:109DD0000270401C491EFBD270470022F6E710B506
:109DE00013460A4604461946FFF7F0FF204610BD09
:109DF0000321001D401E037812021A43491EF9D5A3
:109E000010467047034603220870000A491C521E80
:109E1000FAD51846704730B50B460146002020227F
:109E2000012409E00D46D5409D4205D31D469540CD
:109E3000491B2546954040191546521E002DF1DC60
:109E400030BDF0B51FB40646002082B00546402460
:109E5000019100901BE0019922460F46304600F028
:109E600009FA049A059B801A994110D310461946A5
:109E7000224600F0EFF9361A8F4101972246012061
:109E80000021009F00F0E6F938184D41009020466F
:109E9000641E0028DFDC019B00982946324607B08B
:109EA000F0BD0000F0B507460846584087B0C00F27
:109EB000049048000E46590040084908BC1A8841E1
:109EC00005D2384631461E4617460B460246580014
:109ED000400810434CD0300D039040055900400D10
:109EE000490D0590401A0290402872DA18030121AA
:109EF000000B09050843019004980092002805D042
:109F0000019952420020884100920190029840211C
:109F10000A1A0199009800F09DF905460C466B4617
:109F200007CB00F0B8F9C0197141039A0E0D002358
:109F3000D71756401A467A40164344D0049A002A4E
:109F40002DD0029A012A039A15DC1205C01A9141FC
:109F500001263605001C7141D20F059ED2070093E1
:109F6000019202962A46234600F0B5F907B0F0BDEB
:109F700038463146FAE71605224A0F46B218C01A8B
:109F8000B74101210905001C4F4100187F411146CE
:109F900018187941E20F10436D19644113E0E2078C
:109FA0006D0815436408C2071443039A012612057D
:109FB000C01A91413605001C7141CE07400830435C
:109FC0004908C01851412A46234600F077F9CDE7E9
:109FD000FFE7049801224000C117121A00238B41A9
:109FE00004983146C417381AA141EEE730B4012471
:109FF000E407634030BC55E730B40124E407614016
:10A0000030BC4FE70000E0FFF0B51FB488B00B99FB
:10A010000998002448400999C00F4900490809914E
:10A02000C0070B990090490049080B9109990898BD
:10A03000A64608431CD00B990A98084318D00998E3
:10A0400001244000420D4800410D099824050003F9
:10A05000000B204309900B980003000B20430B904A
:10A0600050181C494018002201901446104605E083
:10A07000002001460DB0F0BD032801DA034600E0E0
:10A0800003239C46C11A0AAE0AE05F0008ADED5BEF
:10A090004F00F75B7D430027AA187C41491C5B1EDB
:10A0A0006145F2DD410004AB5A522104120C0A430F
:10A0B000240C401C0828DFDB0198029000997046B0
:10A0C00001910090059B049A0799069800F003F906
:10A0D000D0E700000DFCFFFFF0B50C465C4085B0FA
:10A0E000E40FE40703944C000026640859009446EA
:10A0F000490802460296224321D062460A431ED0F6
:10A100006200570D4A000E032303550D0124024639
:10A110002C492405781B1B0B360B40182343264380
:10A12000614600901C46501AB44103D30098401C6D
:10A13000009002E0921800985B41002803DA0020AA
:10A14000014605B0F0BD00200121090507468646FD
:10A1500011E064461D46141BB54106D36546521BEB
:10A16000B341744607430C43A646CD07400849084F
:10A17000284392185B4105460D43EAD11046184327
:10A1800013D06046194650407140084306D06046DF
:10A19000101AB34106D20122002306E00022012357
:10A1A000DB0702E00122D2435310009874460105F8
:10A1B000381C6141029C039D0019694100F07EF842
:10A1C000BFE70000FD0300004A0009030123090B5B
:10A1D0001B0519430A4B10B5520D9A4202DA0020B2
:10A1E000014610BD064B34339A4203DC9A1A00F044
:10A1F00041F810BD034BD21800F02CF810BD000040
:10A20000FF030000CDFBFFFF10B5002904DB012494
:10A21000E40740428C412146002B04DB1C4601230D
:10A22000DB075242A341994200D1904210BD000089
:10A23000064C0125064E05E0E36807CC2B430C3C99
:10A2400098471034B442F7D3FBF73EFFA4AC0000AC
:10A25000C4AC000010B5202A04DB0146203A91402E
:10A26000002010BD914020239C1A0346E34019436F
:10A27000904010BD10B5202A04DB0846203AD0409B
:10A28000002110BD0B46D340D0402024A21A91409B
:10A290000843194610BD10B5202A06DBCB17084627
:10A2A000203A1041C1170B4306E00B461341D04042
:10A2B0002024A21A91400843194610BD10B5002B66
:10A2C00008DA0024401C614192185B411A4301D115
:10A2D0004008400010BDF0B51FB482B005460C0028
:10A2E00003D0084600F05CF802E000F059F8203096
:10A2F0000246009021462846FFF7ACFF049B059AD2
:10A3000004460F4618431143084314D0184610431F
:10A310001BD0009840210A1A18460599FFF7AAFF9A
:10A3200005460E46009A05990498FFF793FF0843E7
:10A3300005D0012004E02046394607B0F0BD0020DA
:10A34000C11705430E432C43374300990E9863050C
:10A35000401A7905E40A00220C43FD0A0A3002D5AE
:10A3600000200146E9E70105101969410C9C0D9D8B
:10A3700000196941FFF7A2FFDFE7000037B5144677
:10A380000846064B6A46214600F0EAF8044669464C
:10A39000002000F081FC20463EBD000099AC00008A
:10A3A0002021020C01D010211046020A01D01046D3
:10A3B0000839020901D01046091F820801D0104651
:10A3C000891E420801D0881E7047081A704730B4B1
:10A3D0007446641E2578641CAB4200D21D46635D42
:10A3E0005B00E31830BC184702E008C8121F08C120
:10A3F000002AFAD170477047002001E001C1121F06
:10A40000002AFBD170470000F0B51FB484B0079854
:10A410000699020D014314D04A484B49101848438D
:10A4200005140F9801280E981CD0281A401C0024EF
:10A43000464E4749009401910290002814DA4742A1
:10A4400027E00F98012443A3012808D00021049895
:10A450000F9A84600360C260416009B0F0BD0E983D
:10A46000C143F4E74042E2E7074612E0F80707D0AD
:10A470002246334601990098FFF7C6FD01910090EE
:10A480002246334610461946FFF7BEFD04460E46E7
:10A490007F10002FEAD10298019B0028009A0799AB
:10A4A000069802DAFFF7B0FD01E0FFF715FE04465B
:10A4B0000E460022284BFFF7A7FE03D80020C0431A
:10A4C000014607E00022254B20463146FFF7EAFC13
:10A4D000FFF77AFE102409E0002C0ADB0A22002391
:10A4E000FFF7AFFC059B30321A55641E02460A4343
:10A4F000F2D11122641C059B121B1C190F9B012B0E
:10A5000003D0012308430ED10AE0084304D01120F0
:10A510000E9000200F9084E70E98151A6D1E0BE028
:10A520000E98824202DD00236D1C03E0824201DAB4
:10A5300000236D1E002BEED004980F998260C1603D
:10A5400030C08AE701FCFFFF104D000000002440EE
:10A550000000F03F300000000000F0430000E03F4A
:10A56000FFB597B00646002518E2252877D10024CC
:10A570002746FD49049400E00443761C327801200C
:10A58000203A90400842F7D130782A280ED0022293
:10A59000307801463039092916D804990A235943DD
:10A5A000303940181443761C0490F1E7189802C81B
:10A5B00004911890002904DA012040030443484222
:10A5C000049002200443761C30782E2814D10420F5
:10A5D00004437078761C2A2809D11898761C80C804
:10A5E000189009E00A214F43303FC719761C307894
:10A5F000014630390929F5D930786C2810D006DCAD
:10A600004C281AD068280ED06A2817D104E0742884
:10A6100013D07A2812D110E00120400504430CE049
:10A620000121090501E0032109050C4371788142EC
:10A6300003D1012000052418761C761C3078119077
:10A6400066280BD013DC58287DD009DC00287BD08D
:10A650004528F6D04628F4D047281AD1A5E118E0BD
:10A66000632835D0642870D0652812D19DE1702808
:10A670006CD008DC6728F1D069287BD06E280DD01B
:10A680006F2806D1BAE073282ED0752871D07828AB
:10A6900059D01A9A199990476D1C7EE16002400FBB
:10A6A000022809D003280DD00428189801680DD07D
:10A6B0000D60001D189070E11898EA1701680D6090
:10A6C0004A60F6E7189801680D80F2E70D70F0E730
:10A6D00018986A4601781172001D18900020507277
:10A6E00002A80090012005E0189802C818900020E8
:10A6F0000091C04361070DD5002101E00199491C7B
:10A700000191B94212DA8142F8DB009A515C0029CA
:10A71000F4D10BE0002101E00199491C0191814233
:10A72000FADB019A0099895C0029F5D10199049816
:10A730001A9B471A21463846199A00F097FA019950
:10A74000401945180BE04FE02CE113E04EE0009873
:10A7500000990078491C00911A9A1999904701981C
:10A76000401E0190401CF2D1214638461A9B199A8E
:10A7700010E137E00A200021009001916002410FB2
:10A78000022907D0189A01CA1892C21794460329C1
:10A7900008D00AE01898C01DC108C90005C9189161
:10A7A000944607E000B2C2179446042902D140B291
:10A7B000C1178C4600226146944506DA0A460021FC
:10A7C000404291418C462D2102E0210504D52B21E8
:10A7D0006A461173012103E0E10701D02021F7E768
:10A7E000029155E00A200AE0102008E010200090B5
:10A7F0000021042004430191082703E008200021E0
:10A80000019100906002410F022907D0189A01CAF5
:10A81000189200229446032908D008E01898C01D19
:10A82000C108C90005C91891944603E080B2042903
:10A8300000D1C0B200210291210729D511997029B8
:10A8400006D0009A1021019B4A401A4305D00EE021
:10A8500040216A461173012108E06146014306D098
:10A8600030216A4611731199517302210291009AA5
:10A870000821019B4A401A430AD16146014301D194
:10A88000610705D530216A46117301217F1E0291AF
:10A890001199582904D035A10E910DA90D910DE003
:10A8A00037A1F9E76146019B009AFFF7CAFA0E9BB0
:10A8B0008C469B5C0D9A521E0D92137061460143AB
:10A8C000F0D10D9805A9081A20300190600703D532
:10A8D00001200004844300E001270198874201DD44
:10A8E000381A00E0002001990090411802980918D8
:10A8F0000498401A0490E00306D421461A9B199A42
:10A90000049800F0B3F94519002706E003A81A9A45
:10A91000C05D199990476D1C7F1C02988742F5DB3A
:10A92000E0030CD521461A9B199A049800F09EF971
:10A93000451904E01A9A3020199990476D1C009926
:10A94000481E00900029F5DC08E00D980D9900786C
:10A95000491C0D911A9A199990476D1C0199481E2E
:10A9600001900029F1DC63E1092801003031323324
:10A97000343536373839616263646566000000003B
:10A980003031323334353637383941424344454625
:10A990000000000000F05AF94519761C30780028B4
:10A9A00000D0E2E528461BB0F0BD600700D40627C2
:10A9B0001898C01DC108C90048680A680831C30F4B
:10A9C000DB071891190001D09CA108E0210501D5F1
:10A9D0009BA104E0E10701D09AA100E09AA1430005
:10A9E00011985B08109165280CD006DC452809D029
:10A9F00046281DD0472841D141E0662818D0672855
:10AA00003CD13CE00021112F01DB112000E0781C3B
:10AA10000191009008A911A8FFF7F6FC1399059180
:10AA20000021119A15927F1C12980197009150E015
:10AA30000120C00703900120019008A9009711A8E8
:10AA4000FFF7E2FC139A149905920022119B0092E1
:10AA500012981593059A0192002901D0104602E040
:10AA6000791C40180190381A01D5019804E0404241
:10AA7000401E0090781C0190C01B029043E0012F03
:10AA800000DA01270021112F01DD112000E03846F6
:10AA90000191009008A911A8FFF7B6FC1399059140
:10AAA000119A0021129815920091019721070CD458
:10AAB0000599B94201DB019900E00191012904DD0A
:10AAC000159A491E515C302906D0B84201DA011DA1
:10AAD00005DA0121029115E00199491EEDE70028F0
:10AAE00005DC0099411800910199091A03E0019AC7
:10AAF000411C914200DD01910099401A401C0290D6
:10AB00000120C0070390200706D4029901988142D2
:10AB100002DB0020C043029000206946C87707AFDF
:10AB2000012103980337C907884224D002201190DD
:10AB30002B201290039800280CDA404203902D201D
:10AB4000129007E00A210398FFF765F930317F1E64
:10AB5000039039701199481E11900029F2DC039876
:10AB60000028EFD1791E1298087030782021084013
:10AB70004530BF1E387006A8C01BC01D039010983A
:10AB80000078002800D00120019941180298C017D0
:10AB90000918039809180498401A401E0490E0030D
:10ABA00006D421461A9B199A049800F05FF84519BB
:10ABB00010980078002803D01A9A199990476D1CB4
:10ABC000E00324D521461A9B199A049800F04EF808
:10ABD00045191CE00098002807DB00990598884279
:10ABE00003DD1598405C199901E0199930201A9AF3
:10ABF000904700986D1C401C00900298401E0290E7
:10AC0000002804D11A9A2E20199990476D1C019999
:10AC1000481E01900029DDDC05E038781A9A7F1C77
:10AC2000199990476D1C0399481E03900029F4DC84
:10AC300021461A9B199A0498ACE600002D000000EA
:10AC40002B0000002000000000000000F8B50446C2
:10AC500000251E461746880404D405E03946202006
:10AC6000B0476D1C641EF9D52846F8BDFFB50446F3
:10AC7000002581B01E46C80301D5302700E02027FB
:10AC8000880404D505E038460399B0476D1C641E5E
:10AC9000F9D5284605B0F0BD0A68531C0B6010704A
:10ACA00070470000C4AC000000100020F00000005D
:10ACB000E8A30000B4AD0000F0100020A0150000D3
:10ACC000F8A30000000000000000000000000000E9
:10ACD000000100000000020105030312180B0969BE
:10ACE000434F4D4D205541525400130000000000C9
:10ACF00000000000000000000010005000F2E3D44B
:10AD00006F99A7FEAE7DC65544A3821169C6A5A85A
:10AD10005CC9F0E0A0B0E0C0B0D882180403020122
:10AD2000640000000000000000000000101000504F
:10AD30002C1000500C0000401000004000000000EB
:10AD40003010005050000140D000014000000000D1
:10AD5000000000000024F4000000000000000000DB
:10AD600000000000000000000000000000000240A1
:10AD70000000004000100050001000505C05002052
:10AD800050050020AB000020D004002082040020E9
:10AD9000A904002000100050000000000000000086
:10ADA0000804020104000000000000000000000090
:04ADB000000000009F
:04000005000060C1D6
:00000001FF
