:020000040000FA
:10600000582600207D780000857800008778000001
:106010000000000000000000000000000000000080
:10602000000000000000000000000000897800006F
:1060300000000000000000008B7800008D78000058
:10604000000000008F780000000000000000000049
:106050008F7800008F780000F17600003377000021
:106060008F750000C1750000F37500008F78000087
:106070006D7400000000000000000000000000003F
:106080000000000000000000000000000000000010
:106090000000000000000000000000000000000000
:1060A00000000000000000000000000000000000F0
:1060B00000000000000000000000000000000000E0
:1060C0000348854604F018FA00480047216C000098
:1060D00058260020F8B504460D4616461F46FE48D1
:1060E00000682030082141180A7810464A781202C8
:1060F00010438A7812041043C978090608433843CC
:10610000F549096820310872020A4A72020C8A7243
:10611000000EC872F0480068C07B10218843290136
:10612000102211400843EC490968C873EA48006826
:10613000C07B202188437101202211400843E64999
:106140000968C873E4480068C07B40084000E10764
:10615000C90F0843E0490968C873002C09D1DE481B
:106160000068007B40084000401CDB490968087358
:1061700010E0D94800682030407940084000401CB9
:10618000D5490968203148710720400400F016FF06
:1061900000BFFEE7F8BD1FB500216846017007216A
:1061A00041726B2141811E21818102F0B5FD0520E4
:1061B000CA498870CA480378CA480178CA4AC74899
:1061C00002F0A4FD1FBD13B582B0684640891521B9
:1061D0004902884209D1C5A103C901910090072451
:1061E0006946204602F0BFFDA1E068464089C149EA
:1061F000884208D1C0A000680190022401A920466D
:1062000002F0B1FD93E068464089BA4928318842DE
:1062100009D1BAA103C9019100900824694620461A
:1062200002F0A1FD83E068464089B24923318842EB
:1062300009D1B4A103C90191009007246946204601
:1062400002F091FD73E068464089AA4924318842F2
:1062500009D1AEA103C901910090052469462046E9
:1062600002F081FD63E068464089A24926318842F8
:1062700008D1A8A000680190042401A9204602F0DA
:1062800072FD54E0684640899A492531884208D118
:10629000A1A000680190042401A9204602F063FD3A
:1062A00045E06846408993492731884208D19BA040
:1062B00000680190042401A9204602F054FD36E054
:1062C000684640898B494F31884209D194A103C95E
:1062D0000191009007246946204602F044FD26E023
:1062E00068464089904988420DD1002101910020E3
:1062F000009001A9684600F0D6FE6946684600791C
:1063000002F031FD13E0684640897A49183188422D
:106310000DD1012485480078019001A9204602F0A2
:1063200022FD82480078401E8049087000BF1FBDD2
:106330000FB410B568464089022809D068464089E4
:106340007949884204D16846817B0F3000F092FE83
:106350008E20774908706846807B88706846827B0B
:1063600003A903317248C01C03F0AAFD10BC08BC8D
:1063700004B018473EB504460D466E480078012823
:106380000FD1012168460180032141801F218180B6
:106390000121018123462A466946012002F0C6FDFB
:1063A00000BF3EBD10B564480068007800090001D8
:1063B000614909680870604800680078F0218843E6
:1063C0005D49096808705C48006840780009000170
:1063D000594909684870584800684078F021884356
:1063E00055490968487054480068807800090001E0
:1063F000514909688870504800688078F0218843C6
:106400004D49096888704C480068C078000900014F
:1064100049490968C87048480068C078F021884335
:1064200045490968C87044480068007900090001BE
:10643000414909680871404800680079F0218843A3
:106440003D49096808713C4800684079000900012D
:10645000394909684871384800684079F021884313
:10646000354909684871344800688079000900019D
:10647000314909688871304800688079F021884383
:106480002D49096888712C480068C079000900010D
:1064900029490968C87128480068C079F0218843F3
:1064A00025490968C87124480068007A000900017C
:1064B00021490968087220480068007AF021884361
:1064C0001D49096808721C480068407A00090001EB
:1064D00019490968487231E0281000200A1000208C
:1064E0001E1000201A1000201C10002053594438A0
:1064F00038303100012A0000FFFF000053594420CA
:10650000496E632E424C4520312E3000312E302E04
:1065100030000000322E3030332E3030342E303008
:10652000023A09050A02000001FF00002C100020B9
:10653000CC1000200410002040100020FC4800680F
:10654000407AF0218843FA4909684872F84800689F
:10655000807A00090001F64909688872F4480068E9
:10656000807AF0218843F24909688872F04800680F
:10657000C07A00090001EE490968C872EC48006859
:10658000C07AF0218843EA490968C872E84800687F
:10659000007B00090001E64909680873E4480068C7
:1065A000007BF0218843E24909680873E0480068ED
:1065B000407B00090001DE4909684873DC48006837
:1065C000407BF0218843DA4909684873D84800685D
:1065D0002030007D40084000401CD549096820312A
:1065E0000875D34800682030007D02218843801C54
:1065F000CF49096820310875CD4800682030007DFA
:1066000004218843001DCA49096820310875C8481B
:1066100000682030007D082188430830C44909689B
:1066200020310875C24800682030007D1021884361
:106630001030BF49096820310875BD480068203016
:10664000007D202188432030B94909682031087530
:10665000B74800682030007D402188434030B4496D
:10666000096820310875B24800682030007D80211B
:1066700088438030AE49096820310875AC4800680D
:106680002030407D40084000401CA9490968203165
:106690004875A74800682030407D02218843801C4F
:1066A000A349096820314875A14800682030407D21
:1066B00004218843001D9E490968203148759C4883
:1066C00000682030407D08218843083098490968D7
:1066D00020314875964800682030407D102188435D
:1066E000103093490968203148759148006820307E
:1066F000407D2021884320308D490968203148752C
:106700008B4800682030407D4021884340308849D4
:10671000096820314875864800682030407D802116
:106720008843803082490968203148758048006874
:106730002030807D40084000401C7D4909682031A0
:1067400088757B4800682030807D02218843801C4A
:106750007749096820318875754800682030807D48
:1067600004218843001D72490968203188757048EA
:1067700000682030807D0821884308306C49096812
:10678000203188756A4800682030807D1021884358
:1067900010306749096820318875654800682030E5
:1067A000807D202188432030614909682031887527
:1067B0005F4800682030807D4021884340305C493C
:1067C0000968203188755A4800682030807D802112
:1067D00088438030564909682031887554480068DC
:1067E0002030C07D40084000401C514909682031DC
:1067F000C8754F4800682030C07D02218843801C46
:106800004B4909682031C875494800682030C07D6F
:1068100004218843001D464909682031C875444851
:1068200000682030C07D082188430830404909684D
:106830002031C87500F022FB10BD10B58CB00446A5
:10684000A178627808021043012802D103F039F8D8
:10685000CDE0A17862780802104302280CD1002014
:106860003449087034490870812034490870012087
:10687000400400F09DFBBAE0A17862780802104362
:10688000042817D101202B490870400400F096FB22
:1068900000F0AFF8FFF786FD822028490870E07805
:1068A00088703C202649086026490120800300F0BA
:1068B0002BFE9CE0A1786278080210430121490375
:1068C000884247D12179E2780802104301280CD18F
:1068D000217AE27908021043012802D11649087092
:1068E00085E000201449087081E02179E2780802EF
:1068F0001043154988427AD1217AE279080210437F
:10690000012874D111A0006808900F49684681845D
:106910000F49C1841D2101850121818564210891D0
:1069200008AB012209A9104602F000FB5FE000005D
:10693000401000200510002004100020CC10002082
:1069400020100020AB6A00000F1800006400000057
:10695000192A0000A1786278080210430121490237
:1069600088420FD10E2221461331684603F0A8FA5F
:106970001E22E11C04A803F0A3FA04A80FC8FFF725
:10698000D7FC34E0A178627808021043FF2101317E
:10699000884209D10822E11C0AA803F091FA0B9958
:1069A0000A98FFF710FC22E0A178627808021043F1
:1069B0000121090388421AD0A178627808021043A5
:1069C000082803D18720DF49087010E0A178627899
:1069D0000802104301218903884208D0A178627817
:1069E000080210430121C903884200D100BF0CB046
:1069F00010BD00B589B001F06DFF022002F05EFB12
:106A0000002002F05EFB02F02DFBCF4802F049FAB5
:106A100003216846017500214175807D8108890048
:106A2000491C68468175807D04218843014668467B
:106A300081751021C175002101760321417605A8D9
:106A400002F070F9C0216846818307A90231BF486E
:106A500003F064FA07A802F002FA01216846017106
:106A600055214171442101A881703321C170222137
:106A7000017111214171FF21817102F01BF9002088
:106A800002F036FFFFF787FB002168460173012102
:106A90004173817303A903310120000303F03EFA1F
:106AA00003A802F037FB09B000BD10B5A848008864
:106AB000401CA749088008460088022804DB002003
:106AC00008800120A3490870A348007800281BD043
:106AD000A248006800280BD002F0F8FEFFF789FFFB
:106AE00002F002F89D480068401E9C49086008E0DA
:106AF00000F040FD01231B04012211460020FFF796
:106B0000E9FA80208F49087010BD10B58D480078D3
:106B100080210840002844D08A4800784006400E72
:106B2000884908700120400400F04EFA854800783A
:106B3000030003F050FD0F34090D343434341334A2
:106B4000171D2125292D340085A000F0CAFA27E061
:106B50007C48817887A000F0C4FA21E08DA000F085
:106B6000C0FA1DE0774881788FA000F0BAFA17E0EC
:106B700092A000F0B6FA13E093A000F0B2FA0FE092
:106B800094A000F0AEFA0BE095A000F0AAFA07E09E
:106B90006C488278C11C97A000F0CAFA00E000BFE0
:106BA00000BF10BD10B595480068182141180A783B
:106BB00010464A78120210438A7812041043C978AA
:106BC00009060843044601200004204000280BD099
:106BD0003C20624908608A490120800300F094FC4F
:106BE000062188A0FFF7C6FB0120400320400028B3
:106BF00003D0062185A0FFF7BDFB012080032040C4
:106C0000002803D0062183A0FFF7B4FB0120C003B6
:106C10002040002803D0062180A0FFF7ABFB10BD69
:106C200086B00020049072B6FFF7BCFB00F052FA69
:106C30007CA000F056FAFFF7DCFE01F055FF3C2087
:106C4000464908606E490120800300F05DFC7849E8
:106C50000F20400300F0D3FB62B600203D490870CE
:106C60006FE002F064FD3B48007800285DD0002012
:106C7000384908706F480088401C6E4908800846F3
:106C80000088B42803DB0020088002F0EBF9022022
:106C900000F082FD00F0DAFD00F0B5FD05900598EA
:106CA00003F026FA019003F02AFA0446624A634B85
:106CB00003F03EF90022624B0391029003F0A0F929
:106CC000064603F030FA0490049803F018FA0446DC
:106CD00022460B465BA0059900F003FA032000F062
:106CE0005BFD00F0B3FD00F08EFD0590059803F00C
:106CF000FFF9019003F003FA06464F4A4F4B03F0A9
:106D000017F9044600224E4B03F07AF903910290E2
:106D100003F009FA0490049803F0F1F904462246BE
:106D20000B464FA0059900F0DCF9FFF7EEFE0B488B
:106D30000068002803D10720400400F03FF902F06A
:106D40001AFB8EE7CC100020001000203B680000EA
:106D50002410002006100020051000202010002024
:106D60004741505F4556545F434F4E4E454354454F
:106D7000440000004741505F4556545F4449534327
:106D80004F4E4E45435445442825303278290D0A4C
:106D900000000000616E63735F66696E645F657218
:106DA000766963650D0A0000757064617465207210
:106DB00073703A253034780D0A000000616E6373F9
:106DC00020656E640D0A00006E6F7420616E63733F
:106DD0000D0A00006E6F742062616E640D0A00007F
:106DE00053656375726974792073746172740D0AE6
:106DF000000000006D73673A0D0A00004C1000207F
:106E0000AB6A00004B4559300D0A00004B45593123
:106E10000D0A00004B4559320D0A00004B4559330D
:106E20000D0A000053594420496E632E0D0A0000DC
:106E3000A56B000008100020CDCCCCCCCCCC0C40F5
:106E40000000904063683220616463203A2025642A
:106E5000207661743A2025342E3366200A00000023
:106E600063683320616463203A202564207661746E
:106E70003A2025342E3366200A00000010B5002485
:106E80000F24640322462146204600F0A3F910BDDA
:106E900010B50120000400F09CFA002801D1012067
:106EA00010BD0120400300F094FA002801D1022017
:106EB000F6E70120800300F08CFA002801D10320BE
:106EC000EEE70120C00300F084FA002801D104207D
:106ED000E6E70020E4E710B5002431480088401CB4
:106EE0002F4908802F48007880210840002855D17C
:106EF000FFF7CEFF04462C480088A0423DD1002C6D
:106F00003BD02A480088401C284908800846008851
:106F1000142803DA0020234908703DE02348008844
:106F20007D21C900884212DA1E48007820210843DA
:106F30001C49087008460078BF21084019490870AC
:106F4000E006C00E097808431649087024E0154889
:106F500000784021084313490870E006C00E097804
:106F600008431049087008460078802108430D49FD
:106F7000087000200D4908800EE00A4800782021A2
:106F80000840002805D007480078802108430549BB
:106F900008700020054908800348048010BD0000E7
:106FA000301000202E10002034100020321000205D
:106FB00010B50446204600F0EBF910BD10B50446AC
:106FC000204600F0CCF910BD10B50446204600F074
:106FD000F8F910BD70B504460E4615460E203A4924
:106FE00009680870681C38490968487036480068A4
:106FF00084702A46314634480068C01C02F060FFA5
:1070000070BD08B502F046FD0020009001226946DF
:107010001620FFF7DFFF08BD38B50446A178627877
:10702000237812021A431046E21C02F052FD00209F
:107030000090012269461720FFF7CCFF38BD38B514
:107040000446E078A178000208430346607821787E
:107050000002084302460021084602F03CFD0020E1
:107060000090012269461820FFF7B4FF012017495C
:10707000087138BD70B504460E4625462878162896
:1070800004D0172805D018280BD106E0FFF7B9FF68
:1070900007E0A81CFFF7C0FF03E0A81CFFF7CFFF25
:1070A00000BF00BF70BD70B505460C4606480068BD
:1070B0004078821C0649284602F002FF0248006818
:1070C0004078801C207070BD3C10002020100050C3
:1070D0003810002010B500220821104600F0B8FA40
:1070E00010BD0FB438B5002500240498002803D142
:1070F00038BC08BC04B0184700202849087105A80E
:1071000000902748009A049903F03CFAC5B2002089
:107110000090802D00DD8025002405E02049085DD9
:1071200000F0D2FA601CC4B2AC42F7DB00BFDFE76C
:10713000F8B505460E4617460024002D02D0284615
:10714000FFF7CFFF00241BE02046E117490F091885
:10715000C910C900611A03D1A1B212A0FFF7C1FF83
:10716000315D12A0FFF7BDFF601CC117490F091860
:10717000C910C900411A02D10EA0FFF7B2FF641C6A
:10718000BC42E1DB2046E117490F0918C910C900CC
:10719000611A02D007A0FFF7A4FFF8BD201000502D
:1071A000E61000205B253034785D200025303278F1
:1071B000200000000D0A0000002107E0002201E08D
:1071C000531C9AB2022AFBDB4B1C99B28142F5DBBD
:1071D00070470000F0B503460C4600210020012155
:1071E00000BF49E01D460D40002D43D0C508AD004D
:1071F000BF4E3668AD192E4637783D4677783F0248
:107200003D43B7783F043D43F6783606354346079D
:10721000F70E0F26BE40B543C608B600B44F3F6810
:10722000F61935702F0A77702F0CB7702D0EF57088
:10723000C508AD00AE4E3668AD192E4637783D46CE
:1072400077783F023D43B7783F043D43F6783606F2
:1072500035434607F70E0026BE403543C608B60044
:10726000A34F3F68F61935702F0A77702F0CB7704F
:107270002D0EF5704900401C01252D07A942B1D102
:107280009B4D2D6840351026AE1937783D467778EE
:107290003F023D43B7783F043D43F6783606354319
:1072A0001D43934E3668403635742F0A77742F0C81
:1072B000B7742D0EF5748E4D2D6820351426AE1939
:1072C00037783D4677783F023D43B7783F043D43EA
:1072D000F678360635432543854E366820363575B3
:1072E0002F0A77752F0CB7752D0EF575002A1AD158
:1072F0007F4D2D6840350C26AE1937783D4677789E
:107300003F023D43B7783F043D43F67836063543A8
:107310009D43774E3668403635732F0A77732F0CAE
:10732000B7732D0EF573724D2D6840350C26AE19CE
:1073300037783D4677783F023D43B7783F043D4379
:10734000F678360635431543694E36684036357350
:107350002F0A77732F0CB7732D0EF573F0BD6549A7
:1073600009680A461378194653781B021943937823
:107370001B041943D2781206114301435D4A126877
:1073800011700B0A53700B0C9370090ED17070477B
:10739000584909680A461378194653781B0219435D
:1073A00093781B041943D278120611438143514A42
:1073B000126811700B0A53700B0C9370090ED17088
:1073C00070474C490968096841404A4A126811608F
:1073D00070470146484800680246137818465378BB
:1073E0001B02184393781B041843D27812061043EB
:1073F0000840002801D0012070470020FCE710B5AC
:1074000002463E4800681823C3181C7820465C7862
:10741000240220439C7824042043DB781B06184375
:10742000364B1B681870040A5C70040C9C70000ECC
:10743000D870D043314B1B681874040A5C74040C78
:107440009C74000ED8742D480068203000784008E5
:1074500040002A4B1B6820331870294801600C201B
:1074600001238340274C236000BF10BD10B5234883
:107470000068182141180A7810464A781202104311
:107480008A7812041043C978090608431B49096821
:1074900010228A181378194653781B0219439378DF
:1074A0001B041943D27812061143884300281ED0CA
:1074B00013480068002802D01148006880470F4830
:1074C0000068182141180A7810464A7812021043C1
:1074D0008A7812041043C9780906084307490968E5
:1074E0000870020A4A70020C8A70000EC87010BD43
:1074F0004010002044100020481000204C100020B4
:107500005010002000E100E070B504460D464D48E3
:1075100000680078C007C00F002807D049480068FD
:107520000078400840004749096808706420FFF768
:1075300043FE444800680471210A4171210C8171A5
:10754000210EC171404805603E4800680078102156
:10755000884310303B49096808703A480068007851
:1075600040084000401C374909680870082000F0B6
:1075700059F870BD10B533480068007840084000E5
:10758000304909680870082000F053F810BD10B5A4
:107590002C480068C078C007C00F00280FD02948C9
:1075A0000068407840084000401C2649096848703F
:1075B00025480068002802D023490868804710BD8C
:1075C00010B520480068C0788007C00F00280FD091
:1075D0001C480068407802218843801C19490968CA
:1075E000487019484068002802D017494868804709
:1075F00010BD10B513480068C0784007C00F0028C0
:107600000FD010480068407804218843001D0D49C0
:10761000096848700C488068002802D00A498868C8
:10762000804710BDC206D20E01219140074A116069
:107630007047C206D20E01219140044A8032116087
:1076400070470000541000206811002000E100E0A5
:1076500070B504460D4616464A480068407B00094E
:107660000001001D47490968487346480068407B8F
:10767000F021884340304349096848734248006814
:107680000078000900012907090F08433E490968ED
:1076900008703D480068007880218843E10180221D
:1076A0001140084338490968087037480068007875
:1076B00040218843403034490968087033480660E7
:1076C000062000F057F870BD2F490968487000BFC8
:1076D0002D49096809788906C90F0029F8D02A4977
:1076E0000968097820229143274A1268117070476F
:1076F00010B5254800680078C006C00F00280FD0DC
:10770000214800680078102188431F4909680870E3
:107710001E48006800280BD01C490868804707E015
:1077200019480068007820218843174909680870C3
:1077300010BD10B5164800680078C006C00F0028BC
:107740000FD0134800680078102188431049096859
:1077500008700E48406800280BD00C4948688047E4
:1077600007E00B4800680078202188430849096831
:10777000087010BDC206D20E01219140054A116069
:1077800070470000401000205810002060100020BA
:107790005C10002000E100E035490968097880228A
:1077A0009143334A12681170022802D0032814D181
:1077B00009E030490968097809090901491C2D4A7D
:1077C000126811700AE02B49096809780909090152
:1077D000491C284A1268117000E000BF00BF24490C
:1077E00009680978890889008207920F1143204AA5
:1077F000126811701E4909680978402291431C4A99
:10780000126811707047002100BF481C81B21848EF
:10781000006800784006C00F002802D11648814257
:10782000F3DB13480068007840229043104A126846
:1078300010701148814202DB0F480F3070470C482E
:107840000268D078927800021043F7E70848006891
:107850000078402188430649096808700448006898
:10786000007880218843803001490968087070479A
:107870006810002040100020F0FF000004488047FE
:1078800004480047FEE7FEE7FEE7FEE7FEE7FEE707
:1078900099780000C1600000014802490860704703
:1078A0000024F4006C100020FE49FE4AC96A4832E8
:1078B0004978515C414303E000BF00BF00BF00BFF7
:1078C000491EF9D2704710B5F6491222496B8A71E8
:1078D0000122CA7108220A7200224A72C278837891
:1078E00012021A430A73120A4A7342780378120288
:1078F0001A438A72120ACA724279037912021A432F
:107900008A73120ACA73C279837910021843087401
:10791000000A48740521E44A0C209047012010BD5C
:10792000F1B5E24C82B02020A04706464020A04797
:1079300005468020A047DB4F0446F96A0020087105
:1079400048718871C8710872D9488047F8696030F9
:1079500081790122114381716420FFF7A5FFD54889
:1079600080476420FFF7A0FFD349012088473146B4
:10797000CE4E2020363EB04729464020B047214613
:107980008020B047CD4880476946029808700122A0
:107990000421CB4C6B460020A047FEBDF0B5074646
:1079A00000208FB0C74E14460D46009000292DD000
:1079B00028706870322201AB00200099B0476846F9
:1079C0008179427908021043B8421FD8684600798D
:1079D0001728684615D0017BC27A08021043287028
:1079E000000A68706846817A427A0802B6491043F4
:1079F00088420BD0684601790098081880B2009040
:107A0000D8E7027EC17D10020843E8E7002C1BD0B6
:107A10000020207060700546322201AB2946032009
:107A2000B0476846C088B84210D16846007AC0099D
:107A3000684602D0817D427D01E0817A427A080267
:107A400010432070000A60700FB0F0BD9E4988425C
:107A5000FAD068468088401985B2DDE7F7B59148CD
:107A60009EB0406B002409218171072117462546ED
:107A7000C1713222934E0DAB29460220B04708A8AF
:107A8000027D0DAE182A6DD06846818F08AB987DB7
:107A90005B7D000218431E9B984275D31F9B984242
:107AA00072D8B94270D100201C900C202546454365
:107AB0007C486A46406B518F28180172090A41724E
:107AC000784800218172012242726A46508F10AAC2
:107AD0009085D1852A321AA9FFF760FF082251014B
:107AE000774F1AAB0020B8476E48807A01283CD007
:107AF0006C49002048723222724F6B4603201C9959
:107B0000B847F1796F46B279788809021143884203
:107B100057D13879400603D56C488047002834D0C7
:107B200068460079810606D5C0066849C00E103146
:107B3000884700282BD0634A6846022140883E329D
:107B400090470028684625D00079C009684600881B
:107B500028D01538C6B253483946406B32462818EB
:107B6000153126E010A8018990E74E4E0020707272
:107B7000706BF77A28183A4655490A3002F0A0F996
:107B8000706BBF1CC77125E02EE0052200E00C22BF
:107B90001E9901E0418802224C4B0820203398476F
:107BA00021B0F0BDC01FC6B23E483246406B281817
:107BB000F91D0A3002F084F93A48B61C406BC671D0
:107BC00008E04149884205D039881C98081880B2DD
:107BD0001C9090E7641C0DD032480421406B324A5F
:107BE000C079801C9047DBE73749884202D05019A2
:107BF00085B23EE70A22CBE730B4062913D0417C98
:107C0000037C0A0241781A430B020478C178807819
:107C10000902234301438B4208D919462B4B012209
:107C20000820203322E041790379EAE70520C002E9
:107C3000824202D0401C824202D11846254B15E0F8
:107C40002548824203D11846204B3C330EE022489F
:107C5000401C824203D118461E4BC63306E0100A70
:107C60002928184601D030BCF8E61C4B30BC184718
:107C7000F0B5064693B000200A4C0F90616B0B20C4
:107C800088710025A5720120607268468680C580D3
:107C9000821C69463046FFF781FE082251016B467F
:107CA00000201DE0701000205D1A00001546000045
:107CB000490E0000514F000079090000490F0000F3
:107CC000DD32000055200000FFFF000025310000DC
:107CD0003F2200206F220000022800001324000031
:107CE000FA4FB847A07AFA4F012814D020464572BF
:107CF000F84D322202AB03200F99A847684640890D
:107D000002ACB04247D16846007BC1096946098987
:107D100007D0153906E06572E57AEF492A46606BAF
:107D20002EE0C91FCDB2400604D5E948203880476F
:107D300000281CD06846007B810606D5C006E449B1
:107D4000C00E10398847002813D0E24A022130467D
:107D50003E32904700280ED0162D00D916256846D1
:107D6000007B2A46C00908D02146153106E00522CD
:107D70001CE00C221AE0022218E0E11DD748406BFB
:107D8000C01D02F09DF8002D0FD00421D44A681CBC
:107D9000904713B0F0BDD349884206D068460189A8
:107DA0000F98081880B20F90A3E7012231460A20ED
:107DB000B847EEE7F3B5C94C0D46616B93B00D20A3
:107DC00088710026A67201206072694613980881A6
:107DD0004D818A1D01A91398FFF7E0FD082251018A
:107DE000BA4F01AB0020B847A07AB94F012815D08F
:107DF0000020214648723222B64C03AB31460320A4
:107E0000A0476846C089139988425AD16846007CC9
:107E1000C109694689890CD015390BE000216172CE
:107E20002046E27A406B1446AB49C01D02F048F888
:107E30003BE0C91FCCB2400604D5A5482038804796
:107E4000002819D06846007C810606D5C006A049E6
:107E5000C00E10398847002810D09E4A02213E32B9
:107E60001398904700280BD0A54232D8601BC4B2AB
:107E7000162C07D9162407E005222BE00C2229E056
:107E8000022227E0002C29D06846007CC00902D0DD
:107E90007019153001E07019C01D81B28F488D4DE9
:107EA000436B03202246DB1DA847002C19D0FF2C72
:107EB0000FD0FE2C12D00421601C894A904715B0C7
:107EC000F0BD884988420CD068468089801986B206
:107ED00091E707220C201399B847F0E7042101200D
:107EE000EBE70122F6E7F3B500209BB005461890BA
:107EF0001B984278037810021843891E1991159037
:107F00003222744C08AB03201899A0476846418C74
:107F1000159808AE81427DD13079C1096946098C36
:107F200004D01539CDB2B27C717C03E0C91FCDB24B
:107F3000B279717914020C43400604D564482038A4
:107F40008047002819D008A80079810606D5C00608
:107F50005F49C00E10398847002810D0624FBC42DC
:107F600006D05C4A08213E3215989047002808D078
:107F70001998A84207DD0D2287E0052285E00C2232
:107F800083E0032281E0002269461598FFF706FD91
:107F900068464480159981801998C2B268468271FA
:107FA0001B99C01D891C01F08BFF68464088B842B0
:107FB00041D1002437E06A4693880A226243571869
:107FC0004A4ABC46BF187A7D3F7D12023A4393422B
:107FD00027D10F2292018918097D012909D169460B
:107FE0000A7ACB7911026246194312181176080AEF
:107FF00050766846018810A801836846818810A8D9
:1080000041836846017AC0790902014310A881833F
:1080100016AB00E016E00121062249032B4F002099
:10802000B847641CE4B22D48C16A172040010A1801
:10803000D27BA242BFD801211E224902234C6B46AB
:108040000020A047F078B178000208432549884213
:1080500008D070783178000208431899401880B22F
:1080600018904DE7002D0FD01C4C1321606B1C4A5B
:1080700081710421012090470F21E06A01228901CA
:10808000401842741DB0F0BD0122114B1220159909
:108090009847F7E7F3B599B0002017901998417801
:1080A00000780D02054332220A4C08AB03201799D1
:1080B000A0476846408C08AEA8427AD13079C00902
:1080C000304615D0817C407C14E00000DD32000099
:1080D00045310000552000003F2200207010002094
:1080E0005D1A0000FFFF000002290000E20200000C
:1080F000817940790C020443002269462846FFF743
:108100004DFC6846448085801A98801EC2B268463D
:1081100082711999C01D891C01F0D2FE6846408801
:10812000FC4988423ED1002434E06A4693880A2202
:1081300062435718F84ABC46BF187A7D3F7D120249
:108140003A43934224D10F2292018918097D0129D3
:1081500008D16A46117AD279090211436044017646
:10816000090A41766846018810A88182684681889C
:1081700010A8C1826846017AC0790902014310A89B
:108180000183012106224903E44F15AB0020B847C3
:10819000641CE4B2E248C16A172040010A18D27B8D
:1081A000A242C2D801211E224902DC4C6B460020AB
:1081B000A047F078B17800020843DA49884208D035
:1081C00070783178000208431799401880B21790F0
:1081D00069E7D3480121C26A0F2080011018417459
:1081E0001BB0F0BDF3B597B0002017990646159067
:1081F000487809780402CC4F0C433222CB4D6B46B1
:1082000003201599A84768464088A0424DD168468A
:108210000079C1096946098805D01539CEB2694689
:108220008A7C497C04E0C91FCEB269468A794979C3
:1082300015020D43400604D5BB482038804700286E
:108240003FD068460079810606D5C006B649C00E03
:1082500010398847002836D0AE48854206D0B34A48
:10826000082120463E32904700282ED000220DA93A
:108270002046FFF793FB6846C58604871798C178A8
:10828000807809020143684641871898801EC2B26F
:1082900008A8027717991D30091D01F011FE202250
:1082A00051019E4D0DAB0020A847684640889D496E
:1082B00088420CD0684601881598081880B215903D
:1082C0009BE7052218E00C2216E0032214E0002EA2
:1082D00011D0934C1898626B17219171401C944AED
:1082E00080B2042190470F22E16A0120920189188F
:1082F000487419B0F0BD012221461220B847F8E7B2
:1083000010B504460278401C012A1ED08449022A76
:10831000496B29D0032A17D14278037810021843F9
:1083200002282CD0102835D008284FD00A2852D047
:108330000C2857D0122860D0522863D0162803D1B9
:10834000E178201DFFF74EFF10BD4178027808024A
:1083500010431328F8D177488047231D0222910348
:108360006E4C0020A04710BD4278037810021843DD
:108370000128F8D1487A4007400F487210BD032009
:1083800088711720C871002008720421684A0320F0
:10839000904710BDE078062812D0607D217D020252
:1083A0000A436079217900020843E179A37909023F
:1083B0001943884207D90122014610205A4B03E095
:1083C000607A217AEBE75C4B984710BDE178201D7D
:1083D000FFF712FC10BD6079217900020843FFF716
:1083E00047FC10BDE079A27901021143607922793E
:1083F00000021043FFF7DEFC10BDE178201DFFF7FF
:1084000072FD10BDE178201DFFF744FE10BD10B5D0
:108410001446062807D142480622406B8271224644
:10842000C01D01F04DFD641C414AA0B204219047DB
:1084300010BD10B5414B1446187059700A462146BC
:10844000981C01F03DFD3648416C002901D03B48A5
:10845000884710BD10B5C1788278090211430429FC
:1084600007D0052935D0062902D13549001D884796
:1084700010BD04790F2C21D00ADC230002F0ABF8E8
:108480000E161E161E161E161E161E161E161E165C
:10849000192C13D006DC112C10D0132C0ED0172C55
:1084A00004D10BE01B2C09D01D2C07D04178027899
:1084B00009021143234A001D904710BD41780278FC
:1084C00009021143491E421DC9B22046FFF7B1FF00
:1084D00010BD1749D431C9E7F8B504460078C04348
:1084E000800703D0A01CFFF7B5FFF8BDA178114E9F
:1084F0000B4DC23E144F686B0B0002F06CF80E0877
:10850000293042898945895889636B728289E01CC8
:108510000E491FE002290000E2020000DD320000E7
:1085200070100020FFFF00004531000055200000C2
:108530005D1A0000490E0000852100007411002022
:10854000811E0000352E0000E54F0000D74A0000D4
:10855000FE49E01C88470028C7D128200EE0E869C2
:108560002030017949084900017168692021417072
:1085700041788906FCD5F6488047E078FFF7D0F9C6
:10858000F8BDE01CF3492AE0F248FE308047E87964
:10859000012804D1F048FFF796F90020E871002384
:1085A0000121EE4C1A4689031846A047F8BD09215F
:1085B0008170EB4BE96A0822C918C01C01F080FCED
:1085C00009211BE00B21817001210320B04702200B
:1085D000B847F8BD0120B847DE490220D4398847A2
:1085E000F8BD0C2181700621C170DE490171090AB4
:1085F0004171012181710021C17106210320B04721
:10860000F8BD0022D34BE11C1046C03B9847F8BD93
:1086100007228270C1700221F0E7F0B5CE4C002530
:10862000533C6469E678360701D50020F0BD264644
:10863000C036377947556D1CEDB2022DF9D3467817
:108640000125F709002F08D0F606F60E0E701570FA
:1086500042785206D20F1A7004E0B3069B0E0B70DC
:1086600000231370BC4B0A78533B5B69801CC033FA
:10867000272A0CD20022C03403E026798654521CEB
:10868000D2B20E789642F8D85D720120F0BD5D72CC
:10869000CBE7FEB500206946AE4E0871AE4C0870BF
:1086A000E43E0872533C02AB6A4601A9A06BFFF797
:1086B000B4FF002834D0207B002801D0401E207356
:1086C0000820B047002803D00220B047002818D067
:1086D0006846007801281AD0A56B28780007000F9B
:1086E0000528E0D1A049A81C8847287886224006A2
:1086F000C10FE06A11540622A91C873001F0E0FB8B
:10870000D1E7012168460170007A002805D068464B
:108710000179A06BFFF7E0FEC5E73D20FFF700F908
:10872000FEBDF0B591498BB00420884700280DD0DC
:108730008E4904201A3188478D48804784481C3070
:1087400080471620FFF7ECF80BB0F0BD8948804752
:10875000002810D0804C533CE06A82791107F3D591
:10876000C179CB071BD0844997308847E06AC1792B
:10877000490849001FE07F4D754E754C88353836E5
:108780006F462C3407E06846A8470128DCD16846CC
:108790000178781CB047A0470028F4D0D4E78B07B5
:1087A0000BD5754A01468F311C328D309047E06AF7
:1087B000FD22C1790AE0C171C6E74B0708D56E49B1
:1087C0006031A7308847E06AFB22C1791140F2E7A7
:1087D0000907F72500290ADA427A01461046664A57
:1087E0000A3142329047E06AC1792940E3E72A40E2
:1087F000827103468D332A220821584C0020A0475D
:10880000A2E770B50178012915D181784278080274
:108810001043012810D0504C533C08280FD0022898
:108820003FD0042840D0102840D020284FD04028E6
:1088300001D15248804770BDFFF773FF70BDE06AF9
:10884000002580304679457148490120103188471C
:1088500047488047E36A1846FF302130057185712B
:108860009D71DD711D72417C81748520C654E06963
:1088700020300179227849084900D207D20F1143EC
:108880000171606B07220178344CC906C90E017072
:108890004178C906C90E4170022100208633A047E5
:1088A00070BDFFF7F6FE70BD3548C3E7E0692030C4
:1088B000017949084900017160692030407D400715
:1088C00001D53E2000E00820FFF72AF870BD2B48B4
:1088D0000C38AFE7F0B589B0002568460572294F1E
:1088E000142038701920400103E000BF00BF00BF12
:1088F00000BF401EF9D20121234C7F20A047012157
:108900000F20A047204E203E02A90F20B047684606
:10891000007A8007F8D56846007A40084108490087
:10892000684601720E20A04700210F20A04768462C
:10893000017A012001430E20A04700211020A0470A
:1089400000211120A04700211F201FE0C34E00007E
:1089500005500000B5140000C3100020DD320000F7
:10896000C70300003A090000B347000021080000D7
:10897000490E000059400000D31D0000791100008D
:10898000DF0F00002010005017510000A04768467C
:10899000057200BF6946087A401CC0B20872C82838
:1089A000F7D3FB48C178017001794170417981703A
:1089B00001211020A04701211120A04701211F20E3
:1089C000A0470220387000217F20A04702A93D2047
:1089D000B0476846017A402001433D20A047ED485A
:1089E0008047002108907F20A04702A93D20B04782
:1089F0006846017ABF2001403D20A047E64EF06A5C
:108A0000807801284DD000217F20A047002103203D
:108A1000A0470F210420A047012768460770477030
:108A20004580DE480190DE49684688476846858172
:108A3000C5818782C582022101824182FF21DC310A
:108A400001834183D748D649079003A8BE318847A0
:108A5000D148D349403060318847F06A0146FF3041
:108A60002130C27CB273C574F0692030007938407F
:108A700030700F20800108180574CB4D02A9032027
:108A8000A8476846007A502813D002A90420A847B6
:108A90006846017ABE48203850290BD00A290BD0ED
:108AA00012E000217F20A0470F210320A0470021D2
:108AB000B0E7FEE7FF2100E0D021C17101217F2056
:108AC000A047BF216620A047089809B0F0BD10B5A7
:108AD000B148C06920300179490849000171AD48A9
:108AE0000A308047012010BDF8B5AB4CAF49E06AB1
:108AF00036308847606B3A23017800250A09E16A1D
:108B000012015B5CBF261B071B0F1A430270120782
:108B1000120F012A6DD00B4623335A7F1B7F12029E
:108B20001A430B4641331A70120A5A7002784B7A74
:108B300032409B011A435206520E027065235B5C61
:108B400042789B1D92099B0692019B0E1A4342702C
:108B50000622801C0A3101F0B3F9E16A6520425C0B
:108B6000606B6631083001F0ABF9E06A20300577C0
:108B7000606B8F4A41788906890E891C9047606B2B
:108B800001780A091201121D0270E16A32404B7A23
:108B9000DB075B0E1A43027045235B5C42789B1D2A
:108BA00092099B0692019B0E1A4342700622801C7A
:108BB0000A3101F085F9E16A4520425C606B46317B
:108BC000083001F07DF9606B794A41782C328906D2
:108BD000890E891C9047E06A744E01462031734F1C
:108BE0008B7E0122683E403F012B30D0002B3ED0CF
:108BF00057E00A464032D37813714B7A0278DB078C
:108C000032405B0E1A43027086235B5C5206520EA2
:108C1000DB011A43027042780A31920992010C3248
:108C200042700622801C01F04BF9606BE16A06225B
:108C30000830873101F044F9E16A03223C204254B4
:108C40005A4A8620405C323A8731904790E740305C
:108C50000079002825D060698274130AC3740275F4
:108C60000B7FCA7E01210846B047B84720E0034683
:108C700041335C781B7824021C4312D01446464AC8
:108C8000526914750B7FCA7E2130417F007F090233
:108C900001430120B047B847464845748474C57401
:108CA00006E000233B4C01211A461846E434A04755
:108CB0000120F8BD374910B528318847364C3B496B
:108CC000E06A12390A308847A0780121002809D0CB
:108CD000E06A6378827A9A4200D000218030417144
:108CE000012010BDA170E06AC07A6070F8E710B58D
:108CF00029490722C96A093101F0E2F8012010BDB3
:108D0000244910B536318847012010BD10B5214CDB
:108D1000B834A047012010BD1E4910B55431884712
:108D2000012010BD1E4910B5C4398847012010BD6F
:108D3000184910B544318847012010BD10B51649B7
:108D4000097A012901D1FEF7BEFD012010BD1449A9
:108D500010B54E398847012010BD114910B5403972
:108D60008847012010BD10B50B4C627A012A04D04F
:108D70000B4A66329047012010BD162800D91620F4
:108D8000E072C2B20C4801F09BF80120A072F2E739
:108D900020000340F931000070100020038800001B
:108DA000DB35000001830000815300002D470000E7
:108DB0003D500000000002403F2200207CB50546E7
:108DC000401C41780078090201430126FE4C02292B
:108DD0001DD00022042921D02046C069203010294E
:108DE0001ED0082922D0C81FF93808D10822E91C52
:108DF000684601F065F80199009801F012F8F24810
:108E00004F3001F081F80146284688477CBD072293
:108E1000E91CEE4801F054F82672F0E72272EEE702
:108E200001794908490001716673E8E7617B01290E
:108E300008D10179237849084900DB07DB0F194382
:108E400001716273E1482A22E91CC01D01F038F863
:108E5000A07B0128D3D1E67006202073CFE71CB594
:108E60004178027809021143D74C6A4611804D348B
:108E70002170090A6170801C01F046F8A11C01F004
:108E80004DF800A9D248023101F048F8D1496846AE
:108E9000884701201CBDCF4910B5383188470120D3
:108EA00010BDCC4910B598318847012010BD10B5D0
:108EB000C548C949C06A4218517A127A090609148C
:108EC0001143C54A921E8218507A127A0006001485
:108ED0001043081A0921083000F0DEFF012901DDE6
:108EE000012010BD002010BDB748BB49C06A421820
:108EF000517A127A090609141143B74A921E801852
:108F0000427A007A120612140243881A914201DD55
:108F1000401E00E00930C0B2704700B5FFF7E4FF23
:108F2000022801D9002000BD012000BD70B5144603
:108F30000D460646FFF7D8FF022806D92246A54C63
:108F400029463046AE34A04770BD002070BD30B514
:108F50009D4A5069014620314B780C78D26A1B0239
:108F600023432232547C157C22022A439A180A7623
:108F7000120A4A767222125C002A09D06030827C82
:108F8000012AFCD08878022210438870012030BD6D
:108F900002466032937C002BFCD06030827C012A38
:108FA000FCD0EFE710B5040001D1FFF7D0FF8B49EB
:108FB00020468847012010BDFEB50746824840691B
:108FC000017A8906CE0F017ADF2211400172012158
:108FD000834C7F20A0470025814C29460A20A047CA
:108FE0006420FEF761FC02210A20A0477D48FEF7BD
:108FF0005BFC7B4C203C31E00120FEF755FC6946D0
:109000000A20A04768460078400727D569462620F1
:10901000A0476846007885078108AD0F890068463B
:10902000017001A92520A047684680888000284358
:1090300081B268460078FC28CDD00028CBD06A48A1
:109040008142C8D00029C6D05F484169087ADF2232
:1090500010407201104308720120FEBD6D1CBD421C
:10906000B9D2C9E770B5584CE06920300179CD0715
:109070000179ED0F490849000171207A012803D1D7
:109080006069C17B2929FCD17D20C001FFF794FFD5
:109090000028E06907D020300179490849002943B8
:1090A0000171012070BD2030017949084900294330
:1090B0000171002070BD4948103000474749183100
:1090C0000847464910B5203188473F48444CC06A9C
:1090D000807801280AD000217F20A04700210320AA
:1090E000A0470F210420A047012010BD00217F20B0
:1090F000A0470F210320A0470021F3E73249C96AA6
:1091000049780170012070472F49C96A8978017038
:109110000120704770B5044601782B486278002919
:109120000BD0456AE01C6A7000F0EEFEE91C00F00E
:10913000F5FEA078A870012070BD856AF2E7274887
:1091400010B556308047012010BD30B41E4A0B24A4
:10915000536B80079C71DA79800F9208920002436A
:10916000FB200240880002435007400FD8710621BF
:109170001E4A30BC02201047134840694030407DF1
:1091800070477047F8B5104EB56A31460F6A687877
:109190002037012802D1F87C00077DD10A48A97840
:1091A000806920300090012928D1E81C00F0ACFE35
:1091B00001460098082282181378184653781B023B
:1091C000184393781B0413E0701000208E110020C8
:1091D000BD8D0000A3350000C3020000D53600009D
:1091E00017510000B80B0000FF0300005D1A0000DB
:1091F000D27818431206104301424DD17469A07809
:10920000C00702D16078C00746D1A078800702D499
:109210006078800740D4A078400702D46078400787
:109220003AD4A078000702D46078000734D4A0783C
:10923000C00602D46078C0062ED4A078800602D47E
:109240006078800628D4A078400602D46078400672
:1092500022D4A078C00902D16078C0091CD1F84896
:10926000C669F07B40084000F073F07BEF210840B6
:109270006978C907C90E0843F073F07BDF21084005
:10928000A978C907890E0843F073E81C00F03CFE7A
:1092900031462031087200E06CE0020A4A72020C8A
:1092A0008A72000EC872307B0121084330736E78D9
:1092B000012E02D1F87C000745D1A878012812D1EF
:1092C000E81C00F021FE009908228A18137819463C
:1092D00053781B0219439378D2781B041943120662
:1092E000114308422FD1A078C00702D16078C0078F
:1092F00029D1A078800702D46078800723D4A07891
:10930000400702D4607840071DD4A078000702D43B
:109310006078000717D4A078C00602D46078C00631
:1093200011D4A078800602D4607880060BD4A0788F
:10933000400602D46078400605D4A078C009B7D1B1
:109340006078C009B4D06420FEF7AEFABC48C069AA
:10935000017B490849000173C17BEF221140C173B1
:10936000C17BDF221140C1730021203001724172A4
:109370008172C172F8BD10B5B148C16A0F20800179
:109380000818017C012905D1407C012802D020BFAA
:10939000012010BD72B6FFF7F5FE62B6F8E7A849E6
:1093A000C96B487008780122104308700878C0071C
:1093B000FCD14870704710B5A14C0F20E16A8001C4
:1093C00008188078012802D0022810D012E072B666
:1093D000E06BC17849084900C170B920FFF7DFFF91
:1093E000E06BC17801221143C17062B602E0954979
:1093F00000208847012010BD9149C96B0A780123DC
:109400001A430A700A78D207FCD189780170704734
:10941000F8B5064672B68A4CE06BC1784908490037
:10942000C1700620FFF7BBFFE06BC178012529431F
:10943000C17062B672B6C17849084900C170284649
:10944000FFF7ADFF3046FFF7AAFFE06BC178294375
:10945000C17062B672B6E06BC17849084900C1704C
:109460000520FFF79CFF6846FFF7C6FFE06BC17859
:109470002943C17062B668460078C007EAD172B667
:109480006F46E06BC17849084900C1700520FFF7BD
:1094900086FF3846FFF7B0FFE06BC1782943C17003
:1094A00062B668460078B042E9D1F8BD10B5644CA8
:1094B0000F20E16A800108188078012802D0022874
:1094C00011D017E072B6E06BC17849084900C1704D
:1094D000AB20FFF764FFE06BC17801221143C1703C
:1094E00062B61E2004E0574900208847FF202D3037
:1094F000FEF7DAF9012010BDF3B581B0FFF7D6FF12
:109500000020FFF785FF00264D4C012555E001980E
:1095100031030F1872B6E06BC17849084900C17079
:109520000620FFF73CFFE06BC1782943C17062B6AB
:1095300072B6E06BC17849084900C1700520FFF799
:109540002EFF6846FFF758FFE06BC1782943C170D2
:1095500062B6684600788007EAD572B6E06BC178DB
:1095600049084900C1702020FFF719FF3802000E9A
:10957000FFF715FF3804000EFFF711FFF8B2FFF7F1
:109580000EFFE06BC1782943C17062B672B6E06B22
:10959000C17849084900C1700520FFF700FF6846FF
:1095A000FFF72AFFE06BC1782943C17062B66846B5
:1095B0000078C007EAD1761CF6B202988642A6D39C
:1095C0000C20FFF725FFFFF7F6FE0120FEBDF1B5E9
:1095D00080271B4E1C4D002472B6306B163000F0F5
:1095E00093FC610140184A19184B2021984762B634
:1095F000641CA4B2BC42EFD3009832214843401906
:10960000FF2200F06FFC306B163000F07DFC012172
:10961000FFF772FF002472B6306B163000F074FC56
:10962000610140184A190A4B2021984762B6641C10
:10963000A4B2BC42EFD3074880470120F8BD000028
:1096400070100020B9530000BF110020AD4200008F
:10965000BD430000490F0000F8B58027FE4CFF4EC7
:10966000002572B6206B163000F04EFC69014018E0
:109670008A19FB4B2021984762B66D1CADB2BD42E2
:10968000EFD3FF21FF22F531F44800F02BFCE06A14
:109690000021FF302130017441748174206B163039
:1096A00000F032FC0121FFF727FF002572B6206B86
:1096B000163000F029FC690140188A19E94B202175
:1096C000984762B66D1CADB2BD42EFD372B6E648A4
:1096D000804762B60120B1E770B5DF4D0446E86A05
:1096E0000E46FF308EB00121213001744474847421
:1096F0006846017007223146401C00F0E1FB2A2237
:10970000F11D02A800F0DCFB72B6286B163000F0E9
:10971000FBFB32214C43D34B00196A46984762B693
:1097200072B6D148804762B601200EB070BDF8B560
:10973000C94C0026E1782046407C012946D0A17919
:1097400001294CD0617901294DD0207901283CD1E3
:109750008027002572B6206B163000F0D5FB69011A
:10976000BE4A40188A18BE4B2021984762B66D1C2D
:10977000ADB2BD42EED3206B223000F0C5FB000538
:10978000E17B000D4118B548227C0818B74900F06C
:1097900097FB72B6206B163000F0B6FB0121FFF785
:1097A000ABFE62B6002572B6206B163000F0ACFB43
:1097B0006901AA4A40188A18AA4B2021984762B624
:1097C0006D1CADB2BD42EED3267137E7FFF7FFFE49
:1097D000A249607C3139FFF77FFFE6702EE7FFF783
:1097E0003BFFA6712AE7FFF7F2FE667126E770B528
:1097F000FFF79DFF9E4900208847974AD46920467D
:109800004030417E490849004176E07B01252843EC
:10981000E073E17BEF200140506A4278D207D20E1C
:109820001143E173E17BDF2211408278D207920E6F
:109830001143E173C01C00F067FB20342072010A61
:109840006172010CA172000EE072607928436071B0
:10985000012070BD10B5FFF76AFF7F490C228869AF
:1098600082181378184653781B0218439378D278DD
:109870001B04184312061043C243C8690146403115
:109880000A77130A4B77130C8B77120ECA77C27BB9
:1098900001210A43C273C27BEF231A40C273C27B09
:1098A00020231A43C2738A1E20300272130A4372A5
:1098B000130C8372120EC27242790A434271002065
:1098C00010BD6C49112008700120704710B56A481E
:1098D00080476420FDF7E8FF684901200870FF20F9
:1098E000F530FDF7E1FF634914200870012010BD39
:1098F00030B5594C8DB005466074206B163000F0C1
:1099000003FB32214D43564B40196A46984768463F
:109910000078012815D1E06A012285210A5400A9A6
:1099200007228630013100F0CBFAE06A2A228D301E
:1099300002A900F0C5FAE06A617CFF302130417471
:10994000817401200DB030BD30B5434C0546206B0D
:109950008DB0163000F0D8FA617C322251434018A5
:109960003F4B6A463221984768460078012801D06B
:109970000020E7E7E06A0121803041710722284694
:10998000694400F09DFA2A22E81D02A900F098FA25
:109990000120D7E701B5314831226946313800F05E
:1099A0008FFA2D490120C87008BD2B49012088710C
:1099B00070472949012048717047314B1847F7B566
:1099C0000198802801D90020FEBD234D287A002867
:1099D0000CD00098E873019828742448019A0299E1
:1099E00000F06EFA012028710120FEBD80271B4E79
:1099F0000024286B163000F087FA610140188A199C
:109A0000174B20219847641CA4B2BC42F1D3286BA9
:109A1000223000F079FA01050098090D0818801924
:109A2000019A029900F04CFA286B163000F06CFA9B
:109A30000121FFF761FD0024286B163000F064FA65
:109A4000610140188A19074B20219847641CA4B271
:109A5000BC42F1D3C8E7000070100020BF11002005
:109A6000AD420000BD430000490F0000BF210020AF
:109A7000B9530000201000504B3700000000024096
:109A80004B3C000010B5FFF737FD10BDFB4B1847EE
:109A9000FB4B184710B5FB4C96B0206B0A3000F01A
:109AA00033FAF64B6A4653219847684600780028F7
:109AB00002D0012803D009E0206B123001E0206BB6
:109AC0000E3000F021FA0C21FFF716FD012016B030
:109AD00010BDED4B1847FFB5802781B00D460646F7
:109AE000002472B66001E949E44B421820219847EE
:109AF000641CA4B2BC42F5D3E248006B0A3000F00B
:109B000003FAE249E04B441820784633002802D09B
:109B1000012849D08DE00120049A03999847002834
:109B200072D0204620212A3000F0E3F9002E12D016
:109B30000020325C002A0CD021182031401CC0B219
:109B40008A722028F5D306E021182031401C8A7241
:109B5000C0B22028F8D3204605214A3000F0C9F9C8
:109B6000002D14D00020295C00290DD0221840328D
:109B7000401CC0B291720528F5D308E0211840318D
:109B8000401C8A72C0B200E000220528F6D32146AC
:109B9000433103980873000A4873891E04980874B7
:109BA000000A4874012043E00020049A0399984772
:109BB00000284FD02021601C00F09BF9002E10D00F
:109BC0000020315C00290AD02218401CC0B251701C
:109BD0002028F6D305E02218401C5170C0B220287E
:109BE000F9D320460521213000F083F9002D13D050
:109BF0000020295C00290DD022182032401CC0B260
:109C000051700528F5D307E024E022182032401CCB
:109C10005170C0B20528F8D321462231039808714B
:109C2000000A4871891E04980872000A48720020D0
:109C3000207001210020FFF75FFC944D904E00241E
:109C4000600142192021B047641CA4B2BC42F7D382
:109C500062B6012005B0F0BD8A4948640120704712
:109C600088490222496B8A71C871000A087204216E
:109C7000874A03201047834A0423526B9371D071A3
:109C8000000A10725172080A9072814A1946052022
:109C9000104770B506467B481D46406B0624049B62
:109CA0008471C671360A06724172090A8172C272E3
:109CB000110A01732A4619460D3000F001F90421FA
:109CC000734AE81D904770BD70B515466D4A082669
:109CD000546B2A46A671E071000A20726172090A6B
:109CE000A172204619460B3000F0EAF86D1D684A53
:109CF000A8B20421904770BD62490A22496B8A715B
:109D0000C871000A08720421614A032010475D4AA5
:109D10000C23526B9371D071000A10725172080AB1
:109D2000907204215A4A0520104710B50446554840
:109D30000E22406B82712246C01D00F0C1F8042142
:109D4000534A601C904710BD70B515464D4A102609
:109D5000546B2A46A671E071000A20726172090AEA
:109D6000A172204619460B3000F0AAF86D1D484A32
:109D7000A8B20421904770BD70B50C464149154604
:109D80004B6B12229A71D871000A1872184622463B
:109D90002946093000F094F8E41C3D4AA0B20421A1
:109DA000904770BD70B50C46364915464B6B522234
:109DB0009A71D871000A187218462246294609304D
:109DC00000F07EF8E41C324AA0B20421904770BD36
:109DD00070B515462B4A1626546B2A46A671E071BB
:109DE000000A20726172090AA172204619460B30DE
:109DF00000F066F86D1D264AA8B20421904770BD98
:109E000020491822496B8A71C8710421204A022016
:109E100010471C491E20496B1D4A887104210120EE
:109E2000104773B582B0684640891A49884224D1E8
:109E300068460024134D86891BE00A2161430918F6
:109E40000A7ACB7910021843864210D18A7A4B7A6B
:109E500012021A436B461A708A7A4B7A110219431E
:109E6000090A6B46597002206946FEF77CFF641CA4
:109E7000E4B2286C0178A142DFD87FBDAD4200007A
:109E8000BD43000070100020FF3D0000BF11002006
:109E90005D1A00000229000070B500242546002844
:109EA00001DA01244042002901DA0125494200F08B
:109EB00056F9AC4200D04042002C00D0494270BD5F
:109EC00003460B439B0703D009E008C9121F08C0D3
:109ED000042AFAD203E00B780370401C491C521E7E
:109EE000F9D27047D2B201E00270401C491EFBD289
:109EF00070470022F6E710B513460A460446194695
:109F0000FFF7F0FF204610BD0321001D401E03781F
:109F100012021A43491EF9D5104670470346032220
:109F20000870000A491C521EFAD5184670470000F6
:109F3000F0B51FB488B00B990998002448400999DE
:109F4000C00F490049080991C0070B9900904900CA
:109F500049080B9109990898A64608431CD00B990B
:109F60000A98084318D0099801244000420D48007F
:109F7000410D099824050003000B204309900B981C
:109F80000003000B20430B9050181C49401800227E
:109F900001901446104605E0002001460DB0F0BDCA
:109FA000032801DA034600E003239C46C11A0AAEE7
:109FB0000AE05F0008ADED5B4F00F75B7D430027D3
:109FC000AA187C41491C5B1E6145F2DD410004ABCF
:109FD0005A522104120C0A43240C401C0828DFDBCF
:109FE000019802900099704601910090059B049A97
:109FF0000799069800F047F9D0E700000DFCFFFF35
:10A00000F0B50C465C4085B0E40FE40703944C00C7
:10A0100000266408590094464908024602962243E5
:10A0200021D062460A431ED06200570D4A000E033B
:10A030002303550D012402462C492405781B1B0BD4
:10A04000360B401823432643614600901C46501AA5
:10A05000B44103D30098401C009002E0921800988D
:10A060005B41002803DA0020014605B0F0BD002066
:10A07000012109050746864611E064461D46141B6A
:10A08000B54106D36546521BB341744607430C43A2
:10A09000A646CD0740084908284392185B4105466B
:10A0A0000D43EAD11046184313D06046194650407C
:10A0B0007140084306D06046101AB34106D201220F
:10A0C000002306E000220123DB0702E00122D24345
:10A0D0005310009874460105381C6141029C039D91
:10A0E0000019694100F0C2F8BFE70000FD0300005D
:10A0F00010B500229623114600F07FF810BDC20F64
:10A10000D207400040080BD0C10D0723DB01C9185E
:10A1100040020905400A1143C20840071143704735
:10A12000002001467047CB0FDB07490010B54908F6
:10A1300002460A4307D00A0D07240903E401090B6C
:10A14000121B002A01DC002010BDC900440F0C4383
:10A15000C100E018D205801800F047F810BD30B5F6
:10A160000B46014600202022012409E00D46D5407F
:10A170009D4205D31D469540491B254695404019F3
:10A180001546521E002DF1DC30BDF0B51FB4064659
:10A19000002082B005464024019100901BE0019907
:10A1A00022460F46304600F0C9F9049A059B801AF2
:10A1B000994110D310461946224600F0AFF9361ADD
:10A1C0008F410197224601200021009F00F0A6F94F
:10A1D00038184D4100902046641E0028DFDC019BAA
:10A1E00000982946324607B0F0BD002904DA401C29
:10A1F000490001D140084000704770B40024050CAC
:10A2000005D11024000402D1002921D01124050E0B
:10A2100001D100020834050F01D10001241D850F72
:10A2200001D18000A41C002801DB4000641C00292F
:10A2300008D020252E1B0D46F540A14000D001215D
:10A240002943084301061B1B000ADB1D02D5002021
:10A2500070BC7047DB05181880180029F8DA401C1C
:10A260004900F5D170BC40084000704710B5002B84
:10A2700008DA0024401C614192185B411A4301D165
:10A280004008400010BDF0B51FB482B005460C0078
:10A2900003D0084600F088F902E000F085F920308C
:10A2A000024600902146284600F038F9049B059AA2
:10A2B00004460F4618431143084314D01846104370
:10A2C0001BD0009840210A1A1846059900F036F96B
:10A2D00005460E46009A0599049800F01FF90843B8
:10A2E00005D0012004E02046394607B0F0BD00202B
:10A2F000C11705430E432C43374300990E9863055D
:10A30000401A7905E40A00220C43FD0A0A3002D5FE
:10A3100000200146E9E70105101969410C9C0D9DDB
:10A3200000196941FFF7A2FFDFE70000F0B507461B
:10A330000846584087B0C00F049048000E465900A8
:10A3400040084908BC1A884105D2384631461E46A5
:10A3500017460B4602465800400810434CD0300DBB
:10A36000039040055900400D490D0590401A029098
:10A37000402872DA18030121000B090508430190F7
:10A3800004980092002805D001995242002088418B
:10A3900000920190029840210A1A0199009800F059
:10A3A000BDF805460C466B4607CB00F0D8F8C0193F
:10A3B0007141039A0E0D0023D71756401A467A4072
:10A3C000164344D0049A002A2DD0029A012A039AF7
:10A3D00015DC1205C01A914101263605001C714199
:10A3E000D20F059ED2070093019202962A46234679
:10A3F000FFF749FF07B0F0BD38463146FAE71605CA
:10A40000224A0F46B218C01AB74101210905001CA3
:10A410004F4100187F41114618187941E20F10434F
:10A420006D19644113E0E2076D0815436408C20723
:10A430001443039A01261205C01A91413605001CE7
:10A440007141CE07400830434908C01851412A469F
:10A450002346FFF70BFFCDE7FFE7049801224000FA
:10A46000C117121A00238B4104983146C417381AB9
:10A47000A141EEE730B40124E407634030BC55E766
:10A4800030B40124E407614030BC4FE70000E0FF36
:10A490004A0009030123090B1B0519430A4B10B598
:10A4A000520D9A4202DA0020014610BD064B3433A9
:10A4B0009A4203DC9A1A00F041F810BD034BD218FF
:10A4C00000F02CF810BD0000FF030000CDFBFFFFE3
:10A4D00010B5002904DB0124E40740428C412146E9
:10A4E000002B04DB1C460123DB075242A3419942A7
:10A4F00000D1904210BD0000064C0125064E05E03B
:10A50000E36807CC2B430C3C98471034B442F7D394
:10A51000FBF7DAFDACAE0000CCAE000010B5202A8F
:10A5200004DB0146203A9140002010BD91402023D9
:10A530009C1A0346E3401943904010BD10B5202AF1
:10A5400004DB0846203AD040002110BD0B46D34022
:10A55000D0402024A21A91400843194610BD10B5DE
:10A56000202A06DBCB170846203A1041C1170B43BF
:10A5700006E00B461341D0402024A21A9140084324
:10A58000194610BD37B514460846064B6A462146A3
:10A5900000F0EAF804466946002000F081FC2046FD
:10A5A0003EBD0000A1AE00002021020C01D0102110
:10A5B0001046020A01D010460839020901D010469F
:10A5C000091F820801D01046891E420801D0881E4A
:10A5D0007047081A704730B47446641E2578641CAE
:10A5E000AB4200D21D46635D5B00E31830BC1847E8
:10A5F00002E008C8121F08C1002AFAD1704770474C
:10A60000002001E001C1121F002AFBD170470000A9
:10A61000F0B51FB484B007980699020D014314D019
:10A620004A484B491018484305140F9801280E98C2
:10A630001CD0281A401C0024464E47490094019122
:10A640000290002814DA474227E00F98012443A320
:10A65000012808D0002104980F9A84600360C2602A
:10A66000416009B0F0BD0E98C143F4E74042E2E713
:10A67000074612E0F80707D02246334601990098B2
:10A68000FFF756FC019100902246334610461946CA
:10A69000FFF74EFC04460E467F10002FEAD10298C9
:10A6A000019B0028009A0799069802DAFFF740FC00
:10A6B00001E0FFF7A5FC04460E460022284BFFF7F9
:10A6C00007FF03D80020C043014607E00022254BC6
:10A6D00020463146FFF72AFEFFF7DAFE102409E094
:10A6E000002C0ADB0A220023FFF74FFD059B3032C6
:10A6F0001A55641E02460A43F2D11122641C059BBE
:10A70000121B1C190F9B012B03D0012308430ED1F0
:10A710000AE0084304D011200E9000200F9084E737
:10A720000E98151A6D1E0BE00E98824202DD002372
:10A730006D1C03E0824201DA00236D1E002BEED077
:10A7400004980F998260C16030C08AE701FCFFFF66
:10A75000104D0000000024400000F03F30000000D9
:10A760000000F0430000E03FFFB597B0064600252B
:10A7700018E2252877D100242746FD49049400E0FB
:10A780000443761C32780120203A90400842F7D1E9
:10A7900030782A280ED00222307801463039092933
:10A7A00016D804990A235943303940181443761CAB
:10A7B0000490F1E7189802C804911890002904DA6F
:10A7C0000120400304434842049002200443761CC5
:10A7D00030782E2814D1042004437078761C2A285F
:10A7E00009D11898761C80C8189009E00A214F43B7
:10A7F000303FC719761C3078014630390929F5D920
:10A8000030786C2810D006DC4C281AD068280ED07E
:10A810006A2817D104E0742813D07A2812D110E0E6
:10A820000120400504430CE00121090501E003215A
:10A8300009050C437178814203D1012000052418D9
:10A84000761C761C3078119066280BD013DC5828C3
:10A850007DD009DC00287BD04528F6D04628F4D0EE
:10A8600047281AD1A5E118E0632835D0642870D0B4
:10A87000652812D19DE170286CD008DC6728F1D0E2
:10A8800069287BD06E280DD06F2806D1BAE07328D6
:10A890002ED0752871D0782859D01A9A19999047D6
:10A8A0006D1C7EE16002400F022809D003280DD004
:10A8B0000428189801680DD00D60001D189070E1F3
:10A8C0001898EA1701680D604A60F6E71898016861
:10A8D0000D80F2E70D70F0E718986A460178117262
:10A8E000001D18900020507202A80090012005E081
:10A8F000189802C8189000200091C04361070DD538
:10A90000002101E00199491C0191B94212DA81420A
:10A91000F8DB009A515C0029F4D10BE0002101E042
:10A920000199491C01918142FADB019A0099895CE5
:10A930000029F5D1019904981A9B471A21463846F7
:10A94000199A00F097FA0199401945180BE04FE069
:10A950002CE113E04EE0009800990078491C00912A
:10A960001A9A199990470198401E0190401CF2D103
:10A97000214638461A9B199A10E137E00A20002137
:10A98000009001916002410F022907D0189A01CA74
:10A990001892C2179446032908D00AE01898C01DDF
:10A9A000C108C90005C91891944607E000B2C21752
:10A9B0009446042902D140B2C1178C460022614658
:10A9C000944506DA0A460021404291418C462D21E9
:10A9D00002E0210504D52B216A461173012103E011
:10A9E000E10701D02021F7E7029155E00A200AE0B3
:10A9F000102008E010200090002104200443019161
:10AA0000082703E008200021019100906002410F17
:10AA1000022907D0189A01CA1892002294460329E5
:10AA200008D008E01898C01DC108C90005C91891D0
:10AA3000944603E080B2042900D1C0B20021029103
:10AA4000210729D51199702906D0009A1021019B60
:10AA50004A401A4305D00EE040216A461173012195
:10AA600008E06146014306D030216A46117311990E
:10AA7000517302210291009A0821019B4A401A4316
:10AA80000AD16146014301D1610705D530216A46EB
:10AA9000117301217F1E02911199582904D035A10B
:10AAA0000E910DA90D910DE037A1F9E76146019BCB
:10AAB000009AFFF76AFB0E9B8C469B5C0D9A521E18
:10AAC0000D92137061460143F0D10D9805A9081A43
:10AAD00020300190600703D501200004844300E08A
:10AAE00001270198874201DD381A00E00020019912
:10AAF00000904118029809180498401A0490E00345
:10AB000006D421461A9B199A049800F0B3F9451906
:10AB1000002706E003A81A9AC05D199990476D1C9A
:10AB20007F1C02988742F5DBE0030CD521461A9B77
:10AB3000199A049800F09EF9451904E01A9A3020F9
:10AB4000199990476D1C0099481E00900029F5DC6A
:10AB500008E00D980D990078491C0D911A9A1999E1
:10AB600090476D1C0199481E01900029F1DC63E1BA
:10AB700009280100303132333435363738396162D3
:10AB80006364656600000000303132333435363797
:10AB900038394142434445460000000000F05AF96C
:10ABA0004519761C3078002800D0E2E528461BB015
:10ABB000F0BD600700D406271898C01DC108C90061
:10ABC00048680A680831C30FDB071891190001D0E3
:10ABD0009CA108E0210501D59BA104E0E10701D07B
:10ABE0009AA100E09AA1430011985B081091652892
:10ABF0000CD006DC452809D046281DD0472841D175
:10AC000041E0662818D067283CD13CE00021112F94
:10AC100001DB112000E0781C0191009008A911A827
:10AC2000FFF7F6FC139905910021119A15927F1CEC
:10AC300012980197009150E00120C0070390012075
:10AC4000019008A9009711A8FFF7E2FC139A149944
:10AC500005920022119B009212981593059A019279
:10AC6000002901D0104602E0791C40180190381AE2
:10AC700001D5019804E04042401E0090781C0190EC
:10AC8000C01B029043E0012F00DA01270021112FA1
:10AC900001DD112000E038460191009008A911A8BB
:10ACA000FFF7B6FC13990591119A0021129815929D
:10ACB0000091019721070CD40599B94201DB019954
:10ACC00000E00191012904DD159A491E515C3029EB
:10ACD00006D0B84201DA011D05DA0121029115E022
:10ACE0000199491EEDE7002805DC00994118009103
:10ACF0000199091A03E0019A411C914200DD01917A
:10AD00000099401A401C02900120C00703902007C0
:10AD100006D402990198814202DB0020C0430290D0
:10AD200000206946C87707AF012103980337C90798
:10AD3000884224D0022011902B20129003980028E2
:10AD40000CDA404203902D20129007E00A2103986C
:10AD5000FFF705FA30317F1E039039701199481EB4
:10AD600011900029F2DC03980028EFD1791E129887
:10AD700008703078202108404530BF1E387006A882
:10AD8000C01BC01D039010980078002800D001203F
:10AD9000019941180298C0170918039809180498D6
:10ADA000401A401E0490E00306D421461A9B199ACB
:10ADB000049800F05FF8451910980078002803D037
:10ADC0001A9A199990476D1CE00324D521461A9BC5
:10ADD000199A049800F04EF845191CE000980028D4
:10ADE00007DB00990598884203DD1598405C1999A6
:10ADF00001E0199930201A9A904700986D1C401C68
:10AE000000900298401E0290002804D11A9A2E2029
:10AE1000199990476D1C0199481E01900029DDDCAD
:10AE200005E038781A9A7F1C199990476D1C039990
:10AE3000481E03900029F4DC21461A9B199A0498B5
:10AE4000ACE600002D0000002B00000020000000F8
:10AE500000000000F8B5044600251E461746880489
:10AE600004D405E039462020B0476D1C641EF9D596
:10AE70002846F8BDFFB50446002581B01E46C8032C
:10AE800001D5302700E02027880404D505E03846A6
:10AE90000399B0476D1C641EF9D5284605B0F0BD76
:10AEA0000A68531C0B60107070470000CCAE0000A5
:10AEB00000100020CC000000F0A5000098AF0000BA
:10AEC000CC1000208C15000000A60000000000003F
:10AED00000010000000002010503031218080953D5
:10AEE00059443838303110000000000000000000E4
:10AEF000000000000010005064000000000000008E
:10AF00000000000000000000381000201010005069
:10AF10002C1000500C000040100000400000000009
:10AF20003010005050000140D000014000000000EF
:10AF3000000000007C0001400024F400000000003C
:10AF40000000000000000000000000000000000001
:10AF500000000240000000400010005000100050AF
:10AF60005C05002050050020AB000020D00400202C
:10AF700082040020A90400200010005000000000FE
:10AF800000000000080402010400000000000000AE
:08AF90000000000000000000B9
:04000005000060C1D6
:00000001FF
